{"abi":[{"type":"constructor","inputs":[],"stateMutability":"nonpayable"},{"type":"receive","stateMutability":"payable"},{"type":"function","name":"MAX_INACTIVITY_PERIOD","inputs":[],"outputs":[{"name":"","type":"uint256","internalType":"uint256"}],"stateMutability":"view"},{"type":"function","name":"MIN_INACTIVITY_PERIOD","inputs":[],"outputs":[{"name":"","type":"uint256","internalType":"uint256"}],"stateMutability":"view"},{"type":"function","name":"calculateNFTFee","inputs":[],"outputs":[{"name":"","type":"uint256","internalType":"uint256"}],"stateMutability":"view"},{"type":"function","name":"canDistribute","inputs":[],"outputs":[{"name":"","type":"bool","internalType":"bool"}],"stateMutability":"view"},{"type":"function","name":"depositERC1155","inputs":[{"name":"collection","type":"address","internalType":"address"},{"name":"id","type":"uint256","internalType":"uint256"},{"name":"amount","type":"uint256","internalType":"uint256"},{"name":"data","type":"bytes","internalType":"bytes"}],"outputs":[],"stateMutability":"nonpayable"},{"type":"function","name":"depositERC20","inputs":[{"name":"token","type":"address","internalType":"address"},{"name":"amount","type":"uint256","internalType":"uint256"}],"outputs":[],"stateMutability":"nonpayable"},{"type":"function","name":"depositERC721","inputs":[{"name":"collection","type":"address","internalType":"address"},{"name":"tokenId","type":"uint256","internalType":"uint256"}],"outputs":[],"stateMutability":"nonpayable"},{"type":"function","name":"depositETH","inputs":[],"outputs":[],"stateMutability":"payable"},{"type":"function","name":"distributeAssets","inputs":[],"outputs":[],"stateMutability":"nonpayable"},{"type":"function","name":"emergencyWithdraw","inputs":[],"outputs":[],"stateMutability":"nonpayable"},{"type":"function","name":"executed","inputs":[],"outputs":[{"name":"","type":"bool","internalType":"bool"}],"stateMutability":"view"},{"type":"function","name":"feeDeposit","inputs":[],"outputs":[{"name":"","type":"uint256","internalType":"uint256"}],"stateMutability":"view"},{"type":"function","name":"feeRequired","inputs":[],"outputs":[{"name":"","type":"uint256","internalType":"uint256"}],"stateMutability":"view"},{"type":"function","name":"getERC1155Balance","inputs":[{"name":"collection","type":"address","internalType":"address"},{"name":"id","type":"uint256","internalType":"uint256"}],"outputs":[{"name":"","type":"uint256","internalType":"uint256"}],"stateMutability":"view"},{"type":"function","name":"getERC1155Collections","inputs":[],"outputs":[{"name":"","type":"address[]","internalType":"address[]"}],"stateMutability":"view"},{"type":"function","name":"getERC1155TokenIds","inputs":[{"name":"collection","type":"address","internalType":"address"}],"outputs":[{"name":"","type":"uint256[]","internalType":"uint256[]"}],"stateMutability":"view"},{"type":"function","name":"getERC20Tokens","inputs":[],"outputs":[{"name":"","type":"address[]","internalType":"address[]"}],"stateMutability":"view"},{"type":"function","name":"getERC721Collections","inputs":[],"outputs":[{"name":"","type":"address[]","internalType":"address[]"}],"stateMutability":"view"},{"type":"function","name":"getERC721TokenIds","inputs":[{"name":"collection","type":"address","internalType":"address"}],"outputs":[{"name":"","type":"uint256[]","internalType":"uint256[]"}],"stateMutability":"view"},{"type":"function","name":"getHeirPercentage","inputs":[{"name":"heir","type":"address","internalType":"address"}],"outputs":[{"name":"","type":"uint256","internalType":"uint256"}],"stateMutability":"view"},{"type":"function","name":"getHeirPercentages","inputs":[],"outputs":[{"name":"","type":"uint256[]","internalType":"uint256[]"}],"stateMutability":"view"},{"type":"function","name":"getHeirs","inputs":[],"outputs":[{"name":"","type":"address[]","internalType":"address[]"}],"stateMutability":"view"},{"type":"function","name":"getVaultSummary","inputs":[],"outputs":[{"name":"_owner","type":"address","internalType":"address"},{"name":"_heirs","type":"address[]","internalType":"address[]"},{"name":"_percentages","type":"uint256[]","internalType":"uint256[]"},{"name":"_inactivityPeriod","type":"uint256","internalType":"uint256"},{"name":"_lastActiveTimestamp","type":"uint256","internalType":"uint256"},{"name":"_executed","type":"bool","internalType":"bool"},{"name":"_ethBalance","type":"uint256","internalType":"uint256"},{"name":"_erc20Count","type":"uint256","internalType":"uint256"},{"name":"_erc721Count","type":"uint256","internalType":"uint256"},{"name":"_erc1155Count","type":"uint256","internalType":"uint256"},{"name":"_canDistribute","type":"bool","internalType":"bool"},{"name":"_timeUntilDistribution","type":"uint256","internalType":"uint256"}],"stateMutability":"view"},{"type":"function","name":"hasNonFungibleAssets","inputs":[],"outputs":[{"name":"","type":"bool","internalType":"bool"}],"stateMutability":"view"},{"type":"function","name":"heirPercentages","inputs":[{"name":"","type":"address","internalType":"address"}],"outputs":[{"name":"","type":"uint256","internalType":"uint256"}],"stateMutability":"view"},{"type":"function","name":"heirs","inputs":[{"name":"","type":"uint256","internalType":"uint256"}],"outputs":[{"name":"","type":"address","internalType":"address"}],"stateMutability":"view"},{"type":"function","name":"inactivityPeriod","inputs":[],"outputs":[{"name":"","type":"uint256","internalType":"uint256"}],"stateMutability":"view"},{"type":"function","name":"initialize","inputs":[{"name":"_owner","type":"address","internalType":"address"},{"name":"_heirs","type":"address[]","internalType":"address[]"},{"name":"_percentages","type":"uint256[]","internalType":"uint256[]"},{"name":"_inactivityPeriod","type":"uint256","internalType":"uint256"},{"name":"_registry","type":"address","internalType":"address"},{"name":"_minFeeForNFTs","type":"uint256","internalType":"uint256"}],"outputs":[],"stateMutability":"payable"},{"type":"function","name":"isHeir","inputs":[{"name":"","type":"address","internalType":"address"}],"outputs":[{"name":"","type":"bool","internalType":"bool"}],"stateMutability":"view"},{"type":"function","name":"lastActiveTimestamp","inputs":[],"outputs":[{"name":"","type":"uint256","internalType":"uint256"}],"stateMutability":"view"},{"type":"function","name":"onERC1155BatchReceived","inputs":[{"name":"","type":"address","internalType":"address"},{"name":"","type":"address","internalType":"address"},{"name":"ids","type":"uint256[]","internalType":"uint256[]"},{"name":"values","type":"uint256[]","internalType":"uint256[]"},{"name":"","type":"bytes","internalType":"bytes"}],"outputs":[{"name":"","type":"bytes4","internalType":"bytes4"}],"stateMutability":"nonpayable"},{"type":"function","name":"onERC1155Received","inputs":[{"name":"","type":"address","internalType":"address"},{"name":"","type":"address","internalType":"address"},{"name":"id","type":"uint256","internalType":"uint256"},{"name":"value","type":"uint256","internalType":"uint256"},{"name":"","type":"bytes","internalType":"bytes"}],"outputs":[{"name":"","type":"bytes4","internalType":"bytes4"}],"stateMutability":"nonpayable"},{"type":"function","name":"onERC721Received","inputs":[{"name":"","type":"address","internalType":"address"},{"name":"","type":"address","internalType":"address"},{"name":"tokenId","type":"uint256","internalType":"uint256"},{"name":"","type":"bytes","internalType":"bytes"}],"outputs":[{"name":"","type":"bytes4","internalType":"bytes4"}],"stateMutability":"nonpayable"},{"type":"function","name":"owner","inputs":[],"outputs":[{"name":"","type":"address","internalType":"address"}],"stateMutability":"view"},{"type":"function","name":"registry","inputs":[],"outputs":[{"name":"","type":"address","internalType":"address"}],"stateMutability":"view"},{"type":"function","name":"setHeirs","inputs":[{"name":"newHeirs","type":"address[]","internalType":"address[]"},{"name":"newPercentages","type":"uint256[]","internalType":"uint256[]"}],"outputs":[],"stateMutability":"nonpayable"},{"type":"function","name":"setInactivityPeriod","inputs":[{"name":"newPeriod","type":"uint256","internalType":"uint256"}],"outputs":[],"stateMutability":"nonpayable"},{"type":"function","name":"supportsInterface","inputs":[{"name":"interfaceId","type":"bytes4","internalType":"bytes4"}],"outputs":[{"name":"","type":"bool","internalType":"bool"}],"stateMutability":"pure"},{"type":"function","name":"timeUntilDistribution","inputs":[],"outputs":[{"name":"","type":"uint256","internalType":"uint256"}],"stateMutability":"view"},{"type":"function","name":"topUpFeeDeposit","inputs":[],"outputs":[],"stateMutability":"payable"},{"type":"function","name":"updateActivity","inputs":[],"outputs":[],"stateMutability":"nonpayable"},{"type":"function","name":"withdrawERC1155","inputs":[{"name":"collection","type":"address","internalType":"address"},{"name":"to","type":"address","internalType":"address"},{"name":"id","type":"uint256","internalType":"uint256"},{"name":"amount","type":"uint256","internalType":"uint256"},{"name":"data","type":"bytes","internalType":"bytes"}],"outputs":[],"stateMutability":"nonpayable"},{"type":"function","name":"withdrawERC20","inputs":[{"name":"token","type":"address","internalType":"address"},{"name":"to","type":"address","internalType":"address"},{"name":"amount","type":"uint256","internalType":"uint256"}],"outputs":[],"stateMutability":"nonpayable"},{"type":"function","name":"withdrawERC721","inputs":[{"name":"collection","type":"address","internalType":"address"},{"name":"to","type":"address","internalType":"address"},{"name":"tokenId","type":"uint256","internalType":"uint256"}],"outputs":[],"stateMutability":"nonpayable"},{"type":"function","name":"withdrawETH","inputs":[{"name":"to","type":"address","internalType":"address payable"},{"name":"amount","type":"uint256","internalType":"uint256"}],"outputs":[],"stateMutability":"nonpayable"},{"type":"function","name":"withdrawFeeDeposit","inputs":[],"outputs":[],"stateMutability":"nonpayable"},{"type":"event","name":"ActivityUpdated","inputs":[{"name":"newTimestamp","type":"uint256","indexed":false,"internalType":"uint256"}],"anonymous":false},{"type":"event","name":"AssetsDistributed","inputs":[{"name":"heir","type":"address","indexed":true,"internalType":"address"},{"name":"timestamp","type":"uint256","indexed":false,"internalType":"uint256"},{"name":"feeAmount","type":"uint256","indexed":false,"internalType":"uint256"}],"anonymous":false},{"type":"event","name":"ERC1155Deposited","inputs":[{"name":"collection","type":"address","indexed":true,"internalType":"address"},{"name":"id","type":"uint256","indexed":false,"internalType":"uint256"},{"name":"amount","type":"uint256","indexed":false,"internalType":"uint256"}],"anonymous":false},{"type":"event","name":"ERC1155Distributed","inputs":[{"name":"collection","type":"address","indexed":true,"internalType":"address"},{"name":"heir","type":"address","indexed":true,"internalType":"address"},{"name":"id","type":"uint256","indexed":false,"internalType":"uint256"},{"name":"amount","type":"uint256","indexed":false,"internalType":"uint256"}],"anonymous":false},{"type":"event","name":"ERC20Deposited","inputs":[{"name":"token","type":"address","indexed":true,"internalType":"address"},{"name":"amount","type":"uint256","indexed":false,"internalType":"uint256"}],"anonymous":false},{"type":"event","name":"ERC20Distributed","inputs":[{"name":"token","type":"address","indexed":true,"internalType":"address"},{"name":"heir","type":"address","indexed":true,"internalType":"address"},{"name":"amount","type":"uint256","indexed":false,"internalType":"uint256"}],"anonymous":false},{"type":"event","name":"ERC721Deposited","inputs":[{"name":"collection","type":"address","indexed":true,"internalType":"address"},{"name":"tokenId","type":"uint256","indexed":false,"internalType":"uint256"}],"anonymous":false},{"type":"event","name":"ERC721Distributed","inputs":[{"name":"collection","type":"address","indexed":true,"internalType":"address"},{"name":"heir","type":"address","indexed":true,"internalType":"address"},{"name":"tokenId","type":"uint256","indexed":false,"internalType":"uint256"}],"anonymous":false},{"type":"event","name":"ETHDeposited","inputs":[{"name":"from","type":"address","indexed":true,"internalType":"address"},{"name":"amount","type":"uint256","indexed":false,"internalType":"uint256"}],"anonymous":false},{"type":"event","name":"ETHDistributed","inputs":[{"name":"heir","type":"address","indexed":true,"internalType":"address"},{"name":"amount","type":"uint256","indexed":false,"internalType":"uint256"}],"anonymous":false},{"type":"event","name":"EmergencyWithdrawal","inputs":[{"name":"owner","type":"address","indexed":true,"internalType":"address"},{"name":"timestamp","type":"uint256","indexed":false,"internalType":"uint256"}],"anonymous":false},{"type":"event","name":"FeeToppedUp","inputs":[{"name":"owner","type":"address","indexed":true,"internalType":"address"},{"name":"amount","type":"uint256","indexed":false,"internalType":"uint256"}],"anonymous":false},{"type":"event","name":"FeeWithdrawn","inputs":[{"name":"owner","type":"address","indexed":true,"internalType":"address"},{"name":"amount","type":"uint256","indexed":false,"internalType":"uint256"}],"anonymous":false},{"type":"event","name":"HeirUpdated","inputs":[{"name":"oldHeirs","type":"address[]","indexed":false,"internalType":"address[]"},{"name":"newHeirs","type":"address[]","indexed":false,"internalType":"address[]"},{"name":"newPercentages","type":"uint256[]","indexed":false,"internalType":"uint256[]"},{"name":"timestamp","type":"uint256","indexed":false,"internalType":"uint256"}],"anonymous":false},{"type":"event","name":"InactivityPeriodUpdated","inputs":[{"name":"oldPeriod","type":"uint256","indexed":false,"internalType":"uint256"},{"name":"newPeriod","type":"uint256","indexed":false,"internalType":"uint256"},{"name":"timestamp","type":"uint256","indexed":false,"internalType":"uint256"}],"anonymous":false},{"type":"event","name":"NFTRemoved","inputs":[{"name":"collection","type":"address","indexed":true,"internalType":"address"},{"name":"tokenId","type":"uint256","indexed":false,"internalType":"uint256"}],"anonymous":false},{"type":"event","name":"VaultCreated","inputs":[{"name":"owner","type":"address","indexed":true,"internalType":"address"},{"name":"heirs","type":"address[]","indexed":false,"internalType":"address[]"},{"name":"percentages","type":"uint256[]","indexed":false,"internalType":"uint256[]"},{"name":"inactivityPeriod","type":"uint256","indexed":false,"internalType":"uint256"},{"name":"timestamp","type":"uint256","indexed":false,"internalType":"uint256"}],"anonymous":false},{"type":"error","name":"AlreadyExecuted","inputs":[]},{"type":"error","name":"AlreadyInitialized","inputs":[]},{"type":"error","name":"CannotWithdrawWithNFTs","inputs":[]},{"type":"error","name":"HeirAlreadyExists","inputs":[]},{"type":"error","name":"HeirNotFound","inputs":[]},{"type":"error","name":"InsufficientFeeBalance","inputs":[]},{"type":"error","name":"InsufficientFeeDeposit","inputs":[]},{"type":"error","name":"InvalidHeirPercentages","inputs":[]},{"type":"error","name":"InvalidPeriod","inputs":[]},{"type":"error","name":"NoAssets","inputs":[]},{"type":"error","name":"ReentrancyGuardReentrantCall","inputs":[]},{"type":"error","name":"StillActive","inputs":[]},{"type":"error","name":"TooManyHeirs","inputs":[]},{"type":"error","name":"TransferFailed","inputs":[]},{"type":"error","name":"Unauthorized","inputs":[]},{"type":"error","name":"ZeroAddress","inputs":[]},{"type":"error","name":"ZeroAmount","inputs":[]}],"bytecode":{"object":"0x60808060405234602c5760015f556007805460ff60a81b1916600160a81b17905561319a90816100318239f35b5f80fdfe6080806040526004361015610024575b50361561001a575f80fd5b610022612ee9565b005b5f3560e01c90816301ffc9a7146128805750806310bb62771461283c578063115c68c7146127bf578063150b7a02146126505780631b0e1ffa146126075780631c0795c3146125c55780631e77c26914612553578063256fc59a14611c4757806331a38c8914611c2557806335c817cc14611c085780633e810fc8146115a95780634025feb214611b8257806344004cc114611aac5780634782f77914611a135780634eae51f4146119f0578063568ddfc6146119b357806366a6752414611936578063721413091461191957806375865b6a146116455780637a55c97d1461162b5780637b103999146115ff5780638493eb25146115e15780638ae2421f146115a95780638da5cb5b1461158157806397feb9261461140057806399a31333146113de578063a31ca913146113bc578063abca72901461139f578063af434a6d146112e8578063b106d2d2146112cd578063bc197c81146110da578063bc69938914611054578063c3cf31c514610fcf578063c426320314610f00578063c55e4a0e14610dec578063cacfaa2214610d43578063ccf0002e14610cb2578063d29a4bf614610c01578063d362bd2b14610be4578063d5381e8014610b2f578063d677947e14610b0b578063db2e21bc146106c1578063f23a6e6114610589578063f46b8f82146102b8578063f6326fb3146102a55763fd6f66431461022a575f61000f565b346102a1575f3660031901126102a15760025461024681612e94565b905f5b81811061026a576040516020808252819061026690820186612a23565b0390f35b80610276600192612968565b838060a01b0391549060031b1c165f52600360205260405f205461029a8286612d94565b5201610249565b5f80fd5b5f3660031901126102a157610022612ee9565b346102a15760403660031901126102a1576004356001600160401b0381116102a1576102e8903690600401612ac8565b6024356001600160401b0381116102a157610307903690600401612b36565b6001549091906001600160a01b0316330361057b5760ff6007541661056c576103308282613034565b60025461033c81612ab1565b9061034a6040519283612a90565b808252601f1961035982612ab1565b013660208401375f5b8181106105415750505f5b6002548110156103ce5780610383600192612968565b838060a01b0391549060031b1c165f52600460205260405f2060ff1981541690556103ad81612968565b838060a01b0391549060031b1c165f5260036020525f60408120550161036d565b50906002545f600255806104e1575b505f5b815181101561045e576001906104086001600160a01b036104018386612d94565b5116612c63565b6104128186612d94565b51828060a01b036104238386612d94565b51165f52600360205260405f2055818060a01b036104418285612d94565b51165f52600460205260405f208260ff19825416179055016103e0565b7fba9304fdf0adec6441704aeac20785e7db0582c582b508b4293733f5fbf4c7226104a3846104bf876104b187426006556040519586956080875260808701906128ff565b9085820360208701526128ff565b908382036040850152612a23565b4260608301520390a15f5160206131455f395f51905f526020604051428152a1005b60025f527f405787fa12a823e0f2b7631cc41b3ba8828b3321ca811111fa75cd3aa3bb5ace017f405787fa12a823e0f2b7631cc41b3ba8828b3321ca811111fa75cd3aa3bb5ace5b81811061053657506103dd565b5f8155600101610529565b8061054d600192612968565b838060a01b0391549060031b1c166105658286612d94565b5201610362565b630dc1019760e01b5f5260045ffd5b6282b42960e81b5f5260045ffd5b346102a15761059736612bc3565b50509150915060ff6007541661056c57335f52601560205260ff60405f2054161561069c575b335f52601360205260405f20825f5260205260ff60405f20541615610661575b335f52601160205260405f20825f5260205260405f206105fe828254612d31565b9055600a5460ff811615610651575b5060405191825260208201527f42fa234691156c87ff89ed9ae178d78cb7d8e64c828f7fa7e3892aa2a1a3ebef60403392a260405163f23a6e6160e01b8152602090f35b60ff1916600117600a558261060d565b335f52601360205260405f20825f5260205260405f20600160ff19825416179055335f5260126020526106978260405f20612cc9565b6105dd565b335f52601560205260405f20600160ff198254161790556106bc33612ca8565b6105bd565b346102a1575f3660031901126102a1576001546001600160a01b0316330361057b5760ff6007541661056c576106f5612f56565b600160ff1960075416176007554780610ae1575b505f5b600b548110156108365761071f81612994565b90546040516370a0823160e01b81523060048201529160031b1c6001600160a01b0316602082602481845afa9182156107f8575f92610803575b508161076a575b505060010161070c565b60015460405163a9059cbb60e01b81526001600160a01b0390911660048201526024810192909252602090829060449082905f905af19081156107f8575f916107ca575b50156107bb578180610760565b6312171d8360e31b5f5260045ffd5b6107eb915060203d81116107f1575b6107e38183612a90565b810190612d7c565b826107ae565b503d6107d9565b6040513d5f823e3d90fd5b9091506020813d821161082e575b8161081e60209383612a90565b810103126102a157519083610759565b3d9150610811565b5f5b600f548110156109675761084b816129ac565b60018060a01b0391549060031b1c1690815f52600d60205260405f20604051808260208294549384815201905f5260205f20925f5b81811061094e57505061089592500382612a90565b5f5b8151811015610942576108aa8183612d94565b5190845f52600e60205260405f20825f5260205260ff60405f2054166108d5575b6001915001610897565b6001546001600160a01b0316853b156102a157604051632142170760e11b81523060048201526001600160a01b0391909116602482015260448101929092525f8260648183895af19182156107f857600192610932575b506108cb565b5f61093c91612a90565b8561092c565b50506001915001610838565b8454835260019485019486945060209093019201610880565b5f5b601454811015610aa65761097c816129c4565b60018060a01b0391549060031b1c1690815f52601260205260405f20604051808260208294549384815201905f5260205f20925f5b818110610a8d5750506109c692500382612a90565b5f5b8151811015610a81576109db8183612d94565b5190845f52601160205260405f20825f5260205260405f20549182610a06575b5060019150016109c8565b6001546001600160a01b031690863b156102a157604051637921219560e11b81523060048201526001600160a01b039290921660248301526044820152606481019290925260a060848301525f60a483018190528260c48183895af19182156107f857600192156109fb575f610a7b91612a90565b856109fb565b50506001915001610969565b84548352600194850194869450602090930192016109b1565b60018060a01b03600154167f23d6711a1d031134a36921253c75aa59e967d38e369ac625992824315e204f206020604051428152a260015f55005b6001545f918291829182916001600160a01b03165af1610aff612d3e565b50156107bb5780610709565b346102a1575f3660031901126102a1576020610b25612ec6565b6040519015158152f35b346102a1575f3660031901126102a1576001546001600160a01b03163381900361057b5760ff6007541661056c5760ff600a5416610bd557600854908115610bc6575f8080848194826008555af1610b85612d3e565b50156107bb576001546040519182526001600160a01b0316907f78473f3f373f7673597f4f0fa5873cb4d375fea6d4339ad6b56dbd411513cb3f90602090a2005b635373815f60e01b5f5260045ffd5b63671b9d6f60e01b5f5260045ffd5b346102a1575f3660031901126102a1576020600554604051908152f35b346102a15760403660031901126102a157610c1a6128d3565b6001546001600160a01b0316330361057b5760ff6007541661056c576001600160a01b0316803b156102a157604051632142170760e11b815233600482015230602480830191909152356044820152905f908290818381606481015b03925af180156107f857610ca2575b426006555f5160206131455f395f51905f526020604051428152a1005b5f610cac91612a90565b80610c85565b346102a1575f3660031901126102a157604051600f80548083525f91825260208301917f8d1108e10bcb7c27dddfc02ed9d693a074039d026cf4ea4240b40f7d581ac80291905b818110610d245761026685610d1081870382612a90565b6040519182916020835260208301906128ff565b82546001600160a01b0316845260209093019260019283019201610cf9565b346102a15760803660031901126102a157610d5c6128d3565b6044356064356001600160401b0381116102a157610d7e90369060040161293b565b600154919390916001600160a01b0316330361057b5760ff6007541661056c578215610ddd576001600160a01b0316803b156102a157610c76935f809460405196879586948593637921219560e11b8552602435303360048801612e44565b631f2a200560e01b5f5260045ffd5b346102a1575f3660031901126102a157600254610e0881612e94565b905f5b818110610ec9576101808360018060a01b0360015416906005549060065460ff6007541647600b54600f549160145493610e43612ec6565b95610e8f610e4f612e00565b98610e81604051610e6a81610e6381612c21565b0382612a90565b6040519e8f9e8f90815281602082015201906128ff565b8c810360408e015290612a23565b9860608b015260808a0152151560a089015260c088015260e087015261010086015261012085015215156101408401526101608301520390f35b80610ed5600192612968565b838060a01b0391549060031b1c165f52600360205260405f2054610ef98286612d94565b5201610e0b565b346102a157610f0e36612bc3565b9192909460018060a01b0360015416330361057b5760ff6007541661056c57610f35612f56565b6001600160a01b03851615610fc0578315610ddd576001600160a01b031691823b156102a1575f94610f80869260405198899788968795637921219560e11b87523060048801612e44565b03925af180156107f857610fb0575b426006555f5160206131455f395f51905f526020604051428152a160015f55005b5f610fba91612a90565b80610f8f565b63d92e233d60e01b5f5260045ffd5b5f3660031901126102a1576001546001600160a01b0316330361057b5760ff6007541661056c573415610ddd5761100834600854612d31565b6008556040513481527f4b3f93ddc1a0d0b62a4542a17548df59d6784c5758e6a36484de61469bf6536360203392a2426006555f5160206131455f395f51905f526020604051428152a1005b346102a15760203660031901126102a1576001600160a01b036110756128d3565b165f52600d60205260405f206040519081602082549182815201915f5260205f20905f5b8181106110c457610266856110b081870382612a90565b604051918291602083526020830190612a23565b8254845260209093019260019283019201611099565b346102a15760a03660031901126102a1576110f36128d3565b506110fc6128e9565b506044356001600160401b0381116102a15761111c903690600401612b93565b906064356001600160401b0381116102a15761113c903690600401612b93565b6084356001600160401b0381116102a15761115b90369060040161293b565b505060ff6007541661056c578084036102a1575f93335f52601560205260ff60405f205416156112a8575b5f5b8181106111cc5785806111bf575b6111ad575b60405163bc197c8160e01b8152602090f35b600160ff19600a541617600a5561119b565b5060ff600a541615611196565b6111d7818387612e34565b356111e3828587612e34565b35335f52601360205260405f20825f5260205260ff60405f20541615611263575b9060019291335f52601160205260405f20825f5260205260405f2061122a828254612d31565b905560405191825260208201527f42fa234691156c87ff89ed9ae178d78cb7d8e64c828f7fa7e3892aa2a1a3ebef60403392a201611188565b965090600191335f52601360205260405f20815f5260205260405f208360ff19825416179055335f52601260205261129e8160405f20612cc9565b9196909190611204565b335f52601560205260405f20600160ff198254161790556112c833612ca8565b611186565b346102a1575f3660031901126102a157602060405160018152f35b346102a15760203660031901126102a157600154600435906001600160a01b0316330361057b5760ff6007541661056c57600181108015611392575b6113835760607fbf13602096f3021e39ce62b6e915308841dbdc9b8421bdaaba2a4aa701a1dee1916005549080600555426006556040519182526020820152426040820152a15f5160206131455f395f51905f526020604051428152a1005b6302e8f35960e31b5f5260045ffd5b506312cc03008111611324565b346102a1575f3660031901126102a1576020600854604051908152f35b346102a1575f3660031901126102a15760206113d6612e00565b604051908152f35b346102a1575f3660031901126102a157602060ff600a54166040519015158152f35b346102a15760403660031901126102a1576114196128d3565b60015460243591906001600160a01b0316330361057b5760ff6007541661056c57611442612f56565b8115610ddd576001600160a01b03165f818152600c602052604090205490919060ff1615611514575b6040516323b872dd60e01b8152336004820152306024820152604481018290526020816064815f875af19081156107f8575f916114f5575b50156107bb5760207fab79632de7fe1724598ce2214eaa326d90d48064d2d3397406ecc5769316a5f69142600655604051908152a25f5160206131455f395f51905f526020604051428152a160015f55005b61150e915060203d6020116107f1576107e38183612a90565b836114a3565b815f52600c60205260405f20600160ff19825416179055600b54600160401b81101561156d5780600161154c9201600b55600b612a0e565b81546001600160a01b0360039290921b91821b19169084901b17905561146b565b634e487b7160e01b5f52604160045260245ffd5b346102a1575f3660031901126102a1576001546040516001600160a01b039091168152602090f35b346102a15760203660031901126102a1576001600160a01b036115ca6128d3565b165f526003602052602060405f2054604051908152f35b346102a1575f3660031901126102a15760206040516312cc03008152f35b346102a1575f3660031901126102a15760075460405160089190911c6001600160a01b03168152602090f35b346102a1575f3660031901126102a15760206113d6612da8565b60c03660031901126102a1576116596128d3565b6024356001600160401b0381116102a157611678903690600401612ac8565b906044356001600160401b0381116102a157611698903690600401612b36565b91608435916064356001600160a01b03841684036102a15760a4359160075460ff8160a81c1661190b5760ff60a81b1916600160a81b176007556001600160a01b03168015610fc0576001821080156118fe575b611383576116fa8685613034565b6bffffffffffffffffffffffff60a01b60015416176001555f5b835181101561178b576001906117356001600160a01b036104018388612d94565b61173f8188612d94565b51828060a01b036117508388612d94565b51165f52600360205260405f2055818060a01b0361176e8287612d94565b51165f52600460205260405f208260ff1982541617905501611714565b50915091816005554260065560075490610100600160a81b039060081b16906affffffffffffffffffffff60a81b16176007558160095560ff19600a5416600a555f923492806118a9575b5061182c7ffd6dcf677423d8702d1e90fb76edc6af130ccf1a14c3286b82de30f455af50d79160018060a01b0360015416936040519283926080845261181e60808501612c21565b908482036020860152612a23565b9060408301524260608301520390a280611877575b508061184957005b6040519081527f4b3f93ddc1a0d0b62a4542a17548df59d6784c5758e6a36484de61469bf6536360203392a2005b6040519081527f6c703791f399558807424f489ccd811c72b4ff0b74af547264fad7c646776df060203392a281611841565b925092508134106118ef577ffd6dcf677423d8702d1e90fb76edc6af130ccf1a14c3286b82de30f455af50d761182c83946118e48534612cfd565b9460085591506117d6565b6350ff61c160e01b5f5260045ffd5b506312cc030082116116ec565b62dc149f60e41b5f5260045ffd5b346102a1575f3660031901126102a1576020600954604051908152f35b346102a1575f3660031901126102a157604051601480548083525f91825260208301917fce6d7b5282bd9a3661ae061feed1dbda4e52ab073b1f9285be6e155d9c38d4ec91905b8181106119945761026685610d1081870382612a90565b82546001600160a01b031684526020909301926001928301920161197d565b346102a15760203660031901126102a1576001600160a01b036119d46128d3565b165f526004602052602060ff60405f2054166040519015158152f35b346102a1575f3660031901126102a157610266604051610d1081610e6381612c21565b346102a15760403660031901126102a1576004356001600160a01b038116908190036102a15760015460243591906001600160a01b0316330361057b5760ff6007541661056c57611a62612f56565b8015610fc0578115610ddd57478211610bc6575f80809381935af1611a85612d3e565b50156107bb57426006555f5160206131455f395f51905f526020604051428152a160015f55005b346102a157611aba36612a56565b6001546001600160a01b0316330361057b5760ff6007541661056c57611ade612f56565b6001600160a01b03821615610fc0578015610ddd5760405163a9059cbb60e01b81526001600160a01b0390921660048301526024820152906020908290815f816044810103926001600160a01b03165af19081156107f8575f91611b635750156107bb57426006555f5160206131455f395f51905f526020604051428152a160015f55005b611b7c915060203d6020116107f1576107e38183612a90565b81611a85565b346102a157611b9036612a56565b6001549092906001600160a01b0316330361057b5760ff6007541661056c576001600160a01b03821615610fc0576001600160a01b031691823b156102a157604051632142170760e11b81523060048201526001600160a01b0390921660248301526044820152905f90829081838160648101610c76565b346102a1575f3660031901126102a1576020600654604051908152f35b346102a1575f3660031901126102a157602060ff600754166040519015158152f35b346102a1575f3660031901126102a15760ff6007541661056c57611c69612f56565b611c71612ec6565b15612544576007805460ff19166001179081905560405163020c5e6d60e41b81525f91829182916020908290600490829060081c6001600160a01b03165afa5f9181612510575b50612508575b50600a5460ff16801561250157611cd3612da8565b905b806124f6575b6124e757611cec4760085490612cfd565b915f92806123c9575b505f5b600b54811015611f4d57611d0b81612994565b90546040516370a0823160e01b81523060048201529160031b1c6001600160a01b0316602082602481845afa9182156107f8575f92611f1a575b5081611d56575b5050600101611cf8565b60019650908088611e9a575b508015611d4c575f875b611d77575b50611d4c565b600254811015611e9557611d8a81612968565b60018060a01b0391549060031b1c165f52600360205287612710611db260405f205485612d1e565b0480611dc3575b5080910190611d6c565b9050611e0c602082611dd485612968565b905460405163a9059cbb60e01b815260039290921b1c6001600160a01b03166004820152602481019190915291829081906044820190565b03815f895af19081156107f8575f91611e77575b50156107bb5788918291857fe11fb810155d1e288b49c8619d9dbb4549d8f1fd6dda3c5b14aacbfd10b53b736020611e5785612968565b905460405195865260039190911b1c6001600160a01b031693a391611db9565b611e8f915060203d81116107f1576107e38183612a90565b8b611e20565b611d71565b9050611eb4612710611eac8a84612d1e565b048092612cfd565b908015611d625760075460405163a9059cbb60e01b815260089190911c6001600160a01b0316600482015260248101919091526020816044815f875af180156107f85715611d6257611f139060203d81116107f1576107e38183612a90565b5088611d62565b9091506020813d8211611f45575b81611f3560209383612a90565b810103126102a157519088611d45565b3d9150611f28565b50839291925f925b600f548410156120c157611f68846129ac565b60018060a01b0391549060031b1c1694855f52600d60205260405f209360405180958691602082549182815201915f5260205f20905f905b8082106120a95750505090611fb6910386612a90565b5f5b855181101561209857611fcb8187612d94565b51885f52600e60205260405f20815f5260205260ff60405f205416611ff4575b50600101611fb8565b600195509061200282612f74565b91893b156102a157604051632142170760e11b81523060048201526001600160a01b038416602482015260448101829052925f84606481838f5af19384156107f85760208c927f787f0d20046a9d78e1e5000bff3ec2d52ccac95a65c50cfd96534307571412c792600197612088575b50604051948552868060a01b031693a390611feb565b5f61209291612a90565b8e612072565b509350936001919550019293611f55565b90919260016020819286548152019401920190611fa0565b849293505f925b6014548410156122d6576120db846129c4565b60018060a01b0391549060031b1c1694855f52601260205260405f209360405180958691602082549182815201915f5260205f20905f905b8082106122be5750505090612129910386612a90565b5f5b85518110156122ad5761213e8187612d94565b51885f52601160205260405f20815f5260205260405f20549081612167575b505060010161212b565b60019350905f845b61217a575b5061215d565b6002548110156122a85761218d81612968565b60018060a01b0391549060031b1c165f526003602052846127106121b560405f205485612d1e565b04806121c6575b508091019061216f565b90506121d182612968565b905460039190911b1c6001600160a01b0316918c3b156102a157604051637921219560e11b81523060048201526001600160a01b039093166024840152604483018590526064830182905260a060848401525f60a48401819052838e81838160c4810103925af19182156107f85787938493612298575b508d7f1ded93f95818f97b8aa2deb2bba85a8641bac2ef8edc112d6fc8e3d2d86202d8604061227685612968565b60018060a01b0391549060031b1c16938151908a82526020820152a3916121bc565b5f6122a291612a90565b8e612248565b612174565b5093509360019195500192936120c8565b90919260016020819286548152019401920190612113565b84935060ff600a5416806123c0575b61236d575b5080612344575b5015610bc6577f92ac90467de47b9b7199ee653911359a4f91596f711dfaa9c6fcb19f87788b4460406123226129dc565b60018060a01b0391549060031b1c16928151904282526020820152a260015f55005b6007545f9182918291829160081c6001600160a01b03165af150612366612d3e565b50826122f1565b6008548181101561237f575b506122ea565b5f8061239b84809861239384978597612cfd565b600855612d31565b60075490979060081c6001600160a01b03165af1506123b8612d3e565b508380612379565b508015156122e5565b935060018094866124cb575b846123df91612cfd565b806123eb575b50611cf5565b5f825b6123f9575b506123e5565b6002548110156124c65761240c81612968565b60018060a01b0391549060031b1c165f52600360205261271061243360405f205484612d1e565b0480612443575b508201826123ee565b9092505f8080808461245488612968565b905460039190911b1c6001600160a01b03165af1612470612d3e565b50156107bb57869283917f55083a582b32208b745a21c8ce4f8d545be8cce1437f34637f08fc9d943eacb060206124a684612968565b905460405194855260039190911b1c6001600160a01b031692a29061243a565b6123f3565b935050506127106124dc8584612d1e565b0491829084906123d5565b637806a4f560e11b5f5260045ffd5b508060085410611cdb565b5f90611cd5565b925083611cbe565b9091506020813d60201161253c575b8161252c60209383612a90565b810103126102a157519085611cb8565b3d915061251f565b63785bbc6d60e11b5f5260045ffd5b346102a15760203660031901126102a1576001600160a01b036125746128d3565b165f52601260205260405f206040519081602082549182815201915f5260205f20905f5b8181106125af57610266856110b081870382612a90565b8254845260209093019260019283019201612598565b346102a15760203660031901126102a1576004356002548110156102a1576125ee602091612968565b905460405160039290921b1c6001600160a01b03168152f35b346102a1575f3660031901126102a1576001546001600160a01b0316330361057b5760ff6007541661056c57426006555f5160206131455f395f51905f526020604051428152a1005b346102a15760803660031901126102a1576126696128d3565b506126726128e9565b506044356064356001600160401b0381116102a15761269590369060040161293b565b505060ff6007541661056c57335f52601060205260ff60405f20541615612766575b335f52600e60205260405f20815f5260205260ff60405f205416156126e9575b604051630a85bd0160e11b8152602090f35b335f52600e60205260405f20815f5260205260405f20600160ff19825416179055335f52600d60205261271f8160405f20612cc9565b6040519081527fa2d003d5da09c66f819593df4005002649b2d85f2bcb235106733d6655cb25a860203392a2600a5460ff81166126d75760ff1916600117600a55806126d7565b335f52601060205260405f20600160ff19825416179055600f54600160401b81101561156d5780600161279e9201600f55600f612a0e565b81546001600160a01b0360039290921b91821b19163390911b1790556126b7565b346102a1575f3660031901126102a157604051600b80548083525f91825260208301917f0175b7a638427703f0dbe7bb9bbf987a2551717b34e79f33b5b1008d1fa01db991905b81811061281d5761026685610d1081870382612a90565b82546001600160a01b0316845260209093019260019283019201612806565b346102a15760403660031901126102a1576001600160a01b0361285d6128d3565b165f52601160205260405f206024355f52602052602060405f2054604051908152f35b346102a15760203660031901126102a1576004359063ffffffff60e01b82168092036102a157602091630a85bd0160e11b81149081156128c2575b5015158152f35b630271189760e51b149050836128bb565b600435906001600160a01b03821682036102a157565b602435906001600160a01b03821682036102a157565b90602080835192838152019201905f5b81811061291c5750505090565b82516001600160a01b031684526020938401939092019160010161290f565b9181601f840112156102a1578235916001600160401b0383116102a157602083818601950101116102a157565b6002548110156129805760025f5260205f2001905f90565b634e487b7160e01b5f52603260045260245ffd5b600b5481101561298057600b5f5260205f2001905f90565b600f5481101561298057600f5f5260205f2001905f90565b6014548110156129805760145f5260205f2001905f90565b600254156129805760025f9081527f405787fa12a823e0f2b7631cc41b3ba8828b3321ca811111fa75cd3aa3bb5ace91565b8054821015612980575f5260205f2001905f90565b90602080835192838152019201905f5b818110612a405750505090565b8251845260209384019390920191600101612a33565b60609060031901126102a1576004356001600160a01b03811681036102a157906024356001600160a01b03811681036102a1579060443590565b90601f801991011681019081106001600160401b0382111761156d57604052565b6001600160401b03811161156d5760051b60200190565b9080601f830112156102a157813590612ae082612ab1565b92612aee6040519485612a90565b82845260208085019360051b8201019182116102a157602001915b818310612b165750505090565b82356001600160a01b03811681036102a157815260209283019201612b09565b9080601f830112156102a1578135612b4d81612ab1565b92612b5b6040519485612a90565b81845260208085019260051b8201019283116102a157602001905b828210612b835750505090565b8135815260209182019101612b76565b9181601f840112156102a1578235916001600160401b0383116102a1576020808501948460051b0101116102a157565b60a06003198201126102a1576004356001600160a01b03811681036102a157916024356001600160a01b03811681036102a157916044359160643591608435906001600160401b0382116102a157612c1d9160040161293b565b9091565b602060025491828152019060025f5260205f20905f5b818110612c445750505090565b82546001600160a01b0316845260209093019260019283019201612c37565b600254600160401b81101561156d57806001612c8492016002556002612a0e565b81546001600160a01b0393841660039290921b91821b9390911b1916919091179055565b601454600160401b81101561156d57806001612c8492016014556014612a0e565b8054600160401b81101561156d57612ce691600182018155612a0e565b819291549060031b91821b915f19901b1916179055565b91908203918211612d0a57565b634e487b7160e01b5f52601160045260245ffd5b81810292918115918404141715612d0a57565b91908201809211612d0a57565b3d15612d77573d906001600160401b03821161156d5760405191612d6c601f8201601f191660200184612a90565b82523d5f602084013e565b606090565b908160209103126102a1575180151581036102a15790565b80518210156129805760209160051b010190565b60ff600a541615612dfc57612dc2600f5460145490612d31565b8015612df75766038d7ea4c68000810290810466038d7ea4c6800003612d0a576009549081811015612df2575090565b905090565b505f90565b5f90565b60ff60075416612dfc57612e1660065442612cfd565b6005549081811015612e2e57612e2b91612cfd565b90565b50505f90565b91908110156129805760051b0190565b6001600160a01b039182168152911660208201526040810191909152606081019190915260a060808201819052810183905260c09290918190848401375f828201840152601f01601f1916010190565b90612e9e82612ab1565b612eab6040519182612a90565b8281528092612ebc601f1991612ab1565b0190602036910137565b60ff600754161580612ed55790565b50612ee260065442612cfd565b6005541090565b60ff6007541661056c573415610ddd576040513481527f6c703791f399558807424f489ccd811c72b4ff0b74af547264fad7c646776df060203392a26001546001600160a01b03163314612f3957565b426006555f5160206131455f395f51905f526020604051428152a1565b60025f5414612f655760025f55565b633ee5aeb560e01b5f5260045ffd5b600254906001821461302a576127105f916040516020810191825242604082015260408152612fa4606082612a90565b519020065f915b838310612fde575050505f198101908111612d0a57612fc990612968565b905460039190911b1c6001600160a01b031690565b61300c90612feb84612968565b60018060a01b0391549060031b1c165f52600360205260405f205490612d31565b9182821061301d5760010191612fab565b915050612fc99150612968565b5050612fc96129dc565b90918151156130e857600a8251116131355781518351036130e8575f905b82518210156130f7576001600160a01b0361306d8385612d94565b511615610fc05760018201808311612d0a575b83518110156130cd576001600160a01b0361309b8486612d94565b51166001600160a01b036130af8387612d94565b5116146130be57600101613080565b63a7ed968360e01b5f5260045ffd5b50906130d98185612d94565b51156130e85760010190613052565b6331a2956d60e11b5f5260045ffd5b9150505f5f905b83518210156131265761311e6001916131178487612d94565b5190612d31565b9101906130fe565b9192505061270f19016130e857565b630c32dc9760e31b5f5260045ffdfeb0b11ee556478970296b54b539c74aa54c7302b06d020618369f7e5db4b8c9a6a2646970667358221220d1f35274b1d6ae4ae8b8e2137423d72aed407ff5bb051f52a97ca1e731e328b064736f6c634300081e0033","linkReferences":{}},"methodIdentifiers":{"MAX_INACTIVITY_PERIOD()":"8493eb25","MIN_INACTIVITY_PERIOD()":"b106d2d2","calculateNFTFee()":"7a55c97d","canDistribute()":"d677947e","depositERC1155(address,uint256,uint256,bytes)":"cacfaa22","depositERC20(address,uint256)":"97feb926","depositERC721(address,uint256)":"d29a4bf6","depositETH()":"f6326fb3","distributeAssets()":"256fc59a","emergencyWithdraw()":"db2e21bc","executed()":"31a38c89","feeDeposit()":"abca7290","feeRequired()":"72141309","getERC1155Balance(address,uint256)":"10bb6277","getERC1155Collections()":"66a67524","getERC1155TokenIds(address)":"1e77c269","getERC20Tokens()":"115c68c7","getERC721Collections()":"ccf0002e","getERC721TokenIds(address)":"bc699389","getHeirPercentage(address)":"3e810fc8","getHeirPercentages()":"fd6f6643","getHeirs()":"4eae51f4","getVaultSummary()":"c55e4a0e","hasNonFungibleAssets()":"99a31333","heirPercentages(address)":"8ae2421f","heirs(uint256)":"1c0795c3","inactivityPeriod()":"d362bd2b","initialize(address,address[],uint256[],uint256,address,uint256)":"75865b6a","isHeir(address)":"568ddfc6","lastActiveTimestamp()":"35c817cc","onERC1155BatchReceived(address,address,uint256[],uint256[],bytes)":"bc197c81","onERC1155Received(address,address,uint256,uint256,bytes)":"f23a6e61","onERC721Received(address,address,uint256,bytes)":"150b7a02","owner()":"8da5cb5b","registry()":"7b103999","setHeirs(address[],uint256[])":"f46b8f82","setInactivityPeriod(uint256)":"af434a6d","supportsInterface(bytes4)":"01ffc9a7","timeUntilDistribution()":"a31ca913","topUpFeeDeposit()":"c3cf31c5","updateActivity()":"1b0e1ffa","withdrawERC1155(address,address,uint256,uint256,bytes)":"c4263203","withdrawERC20(address,address,uint256)":"44004cc1","withdrawERC721(address,address,uint256)":"4025feb2","withdrawETH(address,uint256)":"4782f779","withdrawFeeDeposit()":"d5381e80"},"id":30}