{"abi":[{"type":"constructor","inputs":[],"stateMutability":"nonpayable"},{"type":"function","name":"MAX_CREATION_FEE_PERCENT","inputs":[],"outputs":[{"name":"","type":"uint256","internalType":"uint256"}],"stateMutability":"view"},{"type":"function","name":"allVaults","inputs":[{"name":"","type":"uint256","internalType":"uint256"}],"outputs":[{"name":"","type":"address","internalType":"address"}],"stateMutability":"view"},{"type":"function","name":"calculateCreationFee","inputs":[{"name":"depositAmount","type":"uint256","internalType":"uint256"}],"outputs":[{"name":"fee","type":"uint256","internalType":"uint256"}],"stateMutability":"view"},{"type":"function","name":"calculateMinNFTFee","inputs":[{"name":"estimatedNFTCount","type":"uint256","internalType":"uint256"}],"outputs":[{"name":"fee","type":"uint256","internalType":"uint256"}],"stateMutability":"view"},{"type":"function","name":"createVault","inputs":[{"name":"_heirs","type":"address[]","internalType":"address[]"},{"name":"_percentages","type":"uint256[]","internalType":"uint256[]"},{"name":"inactivityPeriod","type":"uint256","internalType":"uint256"},{"name":"estimatedNFTCount","type":"uint256","internalType":"uint256"}],"outputs":[{"name":"vault","type":"address","internalType":"address"}],"stateMutability":"payable"},{"type":"function","name":"creationFeePercent","inputs":[],"outputs":[{"name":"","type":"uint256","internalType":"uint256"}],"stateMutability":"view"},{"type":"function","name":"defaultNFTFee","inputs":[],"outputs":[{"name":"","type":"uint256","internalType":"uint256"}],"stateMutability":"view"},{"type":"function","name":"feeCollector","inputs":[],"outputs":[{"name":"","type":"address","internalType":"address"}],"stateMutability":"view"},{"type":"function","name":"getVaultDetails","inputs":[{"name":"vault","type":"address","internalType":"address"}],"outputs":[{"name":"owner","type":"address","internalType":"address"},{"name":"heirs","type":"address[]","internalType":"address[]"},{"name":"percentages","type":"uint256[]","internalType":"uint256[]"},{"name":"inactivityPeriod","type":"uint256","internalType":"uint256"},{"name":"lastActiveTimestamp","type":"uint256","internalType":"uint256"},{"name":"executed","type":"bool","internalType":"bool"},{"name":"ethBalance","type":"uint256","internalType":"uint256"},{"name":"canDistribute","type":"bool","internalType":"bool"}],"stateMutability":"view"},{"type":"function","name":"getVaults","inputs":[{"name":"offset","type":"uint256","internalType":"uint256"},{"name":"limit","type":"uint256","internalType":"uint256"}],"outputs":[{"name":"vaults","type":"address[]","internalType":"address[]"},{"name":"total","type":"uint256","internalType":"uint256"}],"stateMutability":"view"},{"type":"function","name":"getVaultsByHeir","inputs":[{"name":"heir","type":"address","internalType":"address"}],"outputs":[{"name":"","type":"address[]","internalType":"address[]"}],"stateMutability":"view"},{"type":"function","name":"getVaultsByOwner","inputs":[{"name":"owner","type":"address","internalType":"address"}],"outputs":[{"name":"","type":"address[]","internalType":"address[]"}],"stateMutability":"view"},{"type":"function","name":"implementation","inputs":[],"outputs":[{"name":"","type":"address","internalType":"address"}],"stateMutability":"view"},{"type":"function","name":"isValidVault","inputs":[{"name":"vault","type":"address","internalType":"address"}],"outputs":[{"name":"","type":"bool","internalType":"bool"}],"stateMutability":"view"},{"type":"function","name":"isVault","inputs":[{"name":"","type":"address","internalType":"address"}],"outputs":[{"name":"","type":"bool","internalType":"bool"}],"stateMutability":"view"},{"type":"function","name":"maxNFTFee","inputs":[],"outputs":[{"name":"","type":"uint256","internalType":"uint256"}],"stateMutability":"view"},{"type":"function","name":"minNFTFee","inputs":[],"outputs":[{"name":"","type":"uint256","internalType":"uint256"}],"stateMutability":"view"},{"type":"function","name":"owner","inputs":[],"outputs":[{"name":"","type":"address","internalType":"address"}],"stateMutability":"view"},{"type":"function","name":"renounceOwnership","inputs":[],"outputs":[],"stateMutability":"nonpayable"},{"type":"function","name":"setCreationFee","inputs":[{"name":"newFeePercent","type":"uint256","internalType":"uint256"}],"outputs":[],"stateMutability":"nonpayable"},{"type":"function","name":"setFeeCollector","inputs":[{"name":"newCollector","type":"address","internalType":"address"}],"outputs":[],"stateMutability":"nonpayable"},{"type":"function","name":"setNFTFeeConfig","inputs":[{"name":"_minFee","type":"uint256","internalType":"uint256"},{"name":"_maxFee","type":"uint256","internalType":"uint256"},{"name":"_defaultFee","type":"uint256","internalType":"uint256"}],"outputs":[],"stateMutability":"nonpayable"},{"type":"function","name":"setVaultRegistry","inputs":[{"name":"_registry","type":"address","internalType":"address"}],"outputs":[],"stateMutability":"nonpayable"},{"type":"function","name":"totalVaults","inputs":[],"outputs":[{"name":"","type":"uint256","internalType":"uint256"}],"stateMutability":"view"},{"type":"function","name":"transferOwnership","inputs":[{"name":"newOwner","type":"address","internalType":"address"}],"outputs":[],"stateMutability":"nonpayable"},{"type":"function","name":"vaultRegistry","inputs":[],"outputs":[{"name":"","type":"address","internalType":"address"}],"stateMutability":"view"},{"type":"function","name":"vaultsByHeir","inputs":[{"name":"","type":"address","internalType":"address"},{"name":"","type":"uint256","internalType":"uint256"}],"outputs":[{"name":"","type":"address","internalType":"address"}],"stateMutability":"view"},{"type":"function","name":"vaultsByOwner","inputs":[{"name":"","type":"address","internalType":"address"},{"name":"","type":"uint256","internalType":"uint256"}],"outputs":[{"name":"","type":"address","internalType":"address"}],"stateMutability":"view"},{"type":"function","name":"withdrawFees","inputs":[],"outputs":[],"stateMutability":"nonpayable"},{"type":"event","name":"CreationFeeUpdated","inputs":[{"name":"oldFee","type":"uint256","indexed":false,"internalType":"uint256"},{"name":"newFee","type":"uint256","indexed":false,"internalType":"uint256"}],"anonymous":false},{"type":"event","name":"FeeCollectorUpdated","inputs":[{"name":"oldCollector","type":"address","indexed":true,"internalType":"address"},{"name":"newCollector","type":"address","indexed":true,"internalType":"address"}],"anonymous":false},{"type":"event","name":"FeesWithdrawn","inputs":[{"name":"to","type":"address","indexed":true,"internalType":"address"},{"name":"amount","type":"uint256","indexed":false,"internalType":"uint256"}],"anonymous":false},{"type":"event","name":"NFTFeeConfigUpdated","inputs":[{"name":"minFee","type":"uint256","indexed":false,"internalType":"uint256"},{"name":"maxFee","type":"uint256","indexed":false,"internalType":"uint256"},{"name":"defaultFee","type":"uint256","indexed":false,"internalType":"uint256"}],"anonymous":false},{"type":"event","name":"OwnershipTransferred","inputs":[{"name":"previousOwner","type":"address","indexed":true,"internalType":"address"},{"name":"newOwner","type":"address","indexed":true,"internalType":"address"}],"anonymous":false},{"type":"event","name":"VaultCreated","inputs":[{"name":"vault","type":"address","indexed":true,"internalType":"address"},{"name":"owner","type":"address","indexed":true,"internalType":"address"},{"name":"heirs","type":"address[]","indexed":false,"internalType":"address[]"},{"name":"percentages","type":"uint256[]","indexed":false,"internalType":"uint256[]"},{"name":"inactivityPeriod","type":"uint256","indexed":false,"internalType":"uint256"},{"name":"timestamp","type":"uint256","indexed":false,"internalType":"uint256"},{"name":"depositAmount","type":"uint256","indexed":false,"internalType":"uint256"},{"name":"feeAmount","type":"uint256","indexed":false,"internalType":"uint256"}],"anonymous":false},{"type":"event","name":"VaultRegistered","inputs":[{"name":"vault","type":"address","indexed":true,"internalType":"address"},{"name":"registry","type":"address","indexed":true,"internalType":"address"}],"anonymous":false},{"type":"error","name":"ERC1167FailedCreateClone","inputs":[]},{"type":"error","name":"InsufficientValue","inputs":[]},{"type":"error","name":"InvalidFeePercent","inputs":[]},{"type":"error","name":"InvalidNFTFee","inputs":[]},{"type":"error","name":"InvalidPeriod","inputs":[]},{"type":"error","name":"NotVault","inputs":[]},{"type":"error","name":"OwnableInvalidOwner","inputs":[{"name":"owner","type":"address","internalType":"address"}]},{"type":"error","name":"OwnableUnauthorizedAccount","inputs":[{"name":"account","type":"address","internalType":"address"}]},{"type":"error","name":"VaultCreationFailed","inputs":[]},{"type":"error","name":"WithdrawalFailed","inputs":[]},{"type":"error","name":"ZeroAddress","inputs":[]}],"bytecode":{"object":"0x60a0806040523461010c5733156100f9575f8054336001600160a01b0319821681178355916001600160a01b03909116907f8be0079c531659141344cd1fd0a4f28419497f9722a3daafe3b4186f6b6457e09080a3601460035566038d7ea4c680006005819055662386f26fc100006006556007556131ce8181016001600160401b038111838210176100e5578291611595833903905ff080156100da576001600160a01b0316608052600480546001600160a01b03191633179055604051611484908161011182396080518181816103ca0152610e930152f35b6040513d5f823e3d90fd5b634e487b7160e01b5f52604160045260245ffd5b631e4fbdf760e01b5f525f60045260245ffd5b5f80fdfe6080806040526004361015610012575f80fd5b5f905f3560e01c908162a662591461115f57508063185a31cd146111395780631a0121db146110f05780631df5be2a146110d5578063232f57ac1461105a57806326b1733e1461103d5780632abf3b4914610faa578063476343ee14610edf578063543db66e14610ec25780635c60da1b14610e7e5780636421945014610e41578063652b9b4114610e4157806367a44ca314610a6a578063715018a614610a135780638d654023146109f65780638da5cb5b146109cf5780639094a91e146109a6578063a42dce8014610933578063a5ce6e1214610916578063ac81871114610883578063b7d8622514610817578063b98cca37146107d7578063c1757e36146107aa578063c415b95c14610782578063cb91dd7b1461073f578063cceeb72d1461026e578063cdd7b38a14610245578063e8ced56d146101e45763f2fde38b1461015c575f80fd5b346101e15760203660031901126101e157610175611179565b61017d6113e7565b6001600160a01b031680156101cd5781546001600160a01b03198116821783556001600160a01b03167f8be0079c531659141344cd1fd0a4f28419497f9722a3daafe3b4186f6b6457e08380a380f35b631e4fbdf760e01b82526004829052602482fd5b80fd5b50346101e15760403660031901126101e1576101fe611179565b6001600160a01b03168152600960205260408120805460243592908310156101e157602061022c84846111bb565b905460405160039290921b1c6001600160a01b03168152f35b50346101e157806003193601126101e1576002546040516001600160a01b039091168152602090f35b5060803660031901126106bb5760043567ffffffffffffffff81116106bb57366023820112156106bb5780600401356102a681611261565b916102b4604051938461123f565b8183526024602084019260051b820101903682116106bb57602401915b81831061071f575050506024359067ffffffffffffffff82116106bb57366023830112156106bb5781600401359161030883611261565b92610316604051948561123f565b8084526024602085019160051b830101913683116106bb57602401905b82821061070f575050506044359060643581511561070057610e10831080156106f3575b6106e457610364816112a0565b9261271061037e6103758634611307565b60035490611279565b0461038985826112fa565b3411156106d55760015460405160208101913360601b83526034820152603481526103b560548261123f565b5190206e5af43d82803e903d91602b57fd5bf37f0000000000000000000000000000000000000000000000000000000000000000763d602d80600a3d3981f3363d3d373d3d3d363d7300000062ffffff8260881c16175f5260781b17602052603760095ff5946001600160a01b0386169384156106c657156106bf575b610445816104408434611307565b611307565b906104508334611307565b9060018060a01b036002541690863b156106bb576104ad9261049b895f948d9460405197889687958695633ac32db560e11b875233600488015260c0602488015260c48701906111d0565b8581036003190160448701529061120c565b918b6064850152608484015260a48301520391895af180156106b05761069b575b50600154600160401b811015610687578060016104f0920160015560016111bb565b81549060031b9086821b9160018060a01b03901b1916179055338852600860205261051e8660408a2061140d565b875b855181101561055a576001906001600160a01b0361053e8289611314565b51168a5260096020526105548860408c2061140d565b01610520565b50879484927f8ecb69bad2b4358eb615dbb12c7d1b4ecc91e45f02a7cd14451a05dbf87ec85a926105bf8a868a52600a60205260408a20600160ff198254161790556105b16040519560c0875260c08701906111d0565b90858203602087015261120c565b956040840152426060840152608083015260a08201528033940390a36002546001600160a01b0316806105f8575b602082604051908152f35b8083913b156106785781906024604051809481936367ccd1cb60e01b83528760048401525af1801561067c57610663575b50602091817ff8ee9039d8e4d43426638703c71517008894fdea742bb2d2dbff5a46fb07abdb60018060a01b03600254169280a3826105ed565b61066e83809261123f565b6106785782610629565b5080fd5b6040513d85823e3d90fd5b634e487b7160e01b89526041600452602489fd5b6106a89198505f9061123f565b5f965f6104ce565b6040513d5f823e3d90fd5b5f80fd5b505f610432565b6330be1a3d60e21b5f5260045ffd5b63044044a560e21b5f5260045ffd5b6302e8f35960e31b5f5260045ffd5b506312cc03008311610357565b63d92e233d60e01b5f5260045ffd5b8135815260209182019101610333565b82356001600160a01b03811681036106bb578152602092830192016102d1565b346106bb5760203660031901126106bb57610758611179565b6107606113e7565b600280546001600160a01b0319166001600160a01b0392909216919091179055005b346106bb575f3660031901126106bb576004546040516001600160a01b039091168152602090f35b346106bb5760203660031901126106bb5760206127106107ce600354600435611279565b04604051908152f35b346106bb5760403660031901126106bb5761080d6107f9602435600435611328565b6040519283926040845260408401906111d0565b9060208301520390f35b346106bb5760203660031901126106bb576004356108336113e7565b60c881116108745760407f5de302eeb1c80d4fb0c0953b692353f09ddf431411b8eb2034d5e8576956191291600354908060035582519182526020820152a1005b638a81d3b360e01b5f5260045ffd5b346106bb5760203660031901126106bb576001600160a01b036108a4611179565b165f52600860205260405f206040519081602082549182815201915f5260205f20905f5b8181106108f7576108f3856108df8187038261123f565b6040519182916020835260208301906111d0565b0390f35b82546001600160a01b03168452602090930192600192830192016108c8565b346106bb575f3660031901126106bb576020600754604051908152f35b346106bb5760203660031901126106bb5761094c611179565b6109546113e7565b6001600160a01b0316801561070057600480546001600160a01b0319811683179091556001600160a01b03167f5d16ad41baeb009cd23eb8f6c7cde5c2e0cd5acf4a33926ab488875c37c37f385f80a3005b346106bb5760203660031901126106bb576004356001548110156106bb5761022c60209161118f565b346106bb575f3660031901126106bb575f546040516001600160a01b039091168152602090f35b346106bb575f3660031901126106bb576020600154604051908152f35b346106bb575f3660031901126106bb57610a2b6113e7565b5f80546001600160a01b0319811682556001600160a01b03167f8be0079c531659141344cd1fd0a4f28419497f9722a3daafe3b4186f6b6457e08280a3005b346106bb5760203660031901126106bb57610a83611179565b6001600160a01b0381165f818152600a602052604090205490919060ff1615610e3257604051638da5cb5b60e01b815290602082600481865afa9182156106b0575f92610df6575b506040516313ab947d60e21b8152925f84600481845afa9384156106b0575f94610d5b575b5060405163fd6f664360e01b8152905f82600481845afa9182156106b0575f92610cc8575b5060405163d362bd2b60e01b815292602084600481855afa9384156106b0575f94610c94575b50604051630d7205f360e21b8152602081600481865afa9081156106b0575f91610c62575b506040516331a38c8960e01b815293602085600481875afa9283156106b0576004955f94610c40575b50602090319460405196878092636b3bca3f60e11b82525afa9485156106b0575f95610c0b575b50610be990610bdb604051998a9960018060a01b03168a5261010060208b01526101008a01906111d0565b9088820360408a015261120c565b9460608701526080860152151560a085015260c0840152151560e08301520390f35b610be9919550610c329060203d602011610c39575b610c2a818361123f565b8101906112e2565b9490610bb0565b503d610c20565b6020919450610c5b90823d8411610c3957610c2a818361123f565b9390610b89565b90506020813d602011610c8c575b81610c7d6020938361123f565b810103126106bb575187610b60565b3d9150610c70565b9093506020813d602011610cc0575b81610cb06020938361123f565b810103126106bb57519286610b3b565b3d9150610ca3565b9091503d805f833e610cda818361123f565b8101906020818303126106bb5780519067ffffffffffffffff82116106bb57019080601f830112156106bb578151610d1181611261565b92610d1f604051948561123f565b81845260208085019260051b8201019283116106bb57602001905b828210610d4b575050509085610b15565b8151815260209182019101610d3a565b9093503d805f833e610d6d818361123f565b8101906020818303126106bb5780519067ffffffffffffffff82116106bb57019080601f830112156106bb578151610da481611261565b92610db2604051948561123f565b81845260208085019260051b8201019283116106bb57602001905b828210610dde575050509284610af0565b60208091610deb846112ce565b815201910190610dcd565b9091506020813d602011610e2a575b81610e126020938361123f565b810103126106bb57610e23906112ce565b9083610acb565b3d9150610e05565b6362df054560e01b5f5260045ffd5b346106bb5760203660031901126106bb576001600160a01b03610e62611179565b165f52600a602052602060ff60405f2054166040519015158152f35b346106bb575f3660031901126106bb576040517f00000000000000000000000000000000000000000000000000000000000000006001600160a01b03168152602090f35b346106bb575f3660031901126106bb576020600654604051908152f35b346106bb575f3660031901126106bb57610ef76113e7565b475f8080808460018060a01b03600454165af13d15610fa5573d67ffffffffffffffff8111610f915760405190610f38601f8201601f19166020018361123f565b81525f60203d92013e5b15610f82576004546040519182526001600160a01b0316907fc0819c13be868895eb93e40eaceb96de976442fa1d404e5c55f14bb65a8c489a90602090a2005b6327fcd9d160e01b5f5260045ffd5b634e487b7160e01b5f52604160045260245ffd5b610f42565b346106bb5760603660031901126106bb57604435602435600435610fcc6113e7565b818111611025578083108015611034575b611025577ffa1c773cd8c093fd48c07feba9da024a14b020fb4c7abb66e20e4e2f845f8de09260609282600555806006558160075560405192835260208301526040820152a1005b6358f85b4960e11b5f5260045ffd5b50818311610fdd565b346106bb575f3660031901126106bb576020600554604051908152f35b346106bb5760203660031901126106bb576001600160a01b0361107b611179565b165f52600960205260405f206040519081602082549182815201915f5260205f20905f5b8181106110b6576108f3856108df8187038261123f565b82546001600160a01b031684526020909301926001928301920161109f565b346106bb575f3660031901126106bb57602060405160c88152f35b346106bb5760403660031901126106bb57611109611179565b6001600160a01b03165f908152600860205260409020805460243591908210156106bb5760209161022c916111bb565b346106bb5760203660031901126106bb5760206111576004356112a0565b604051908152f35b346106bb575f3660031901126106bb576020906003548152f35b600435906001600160a01b03821682036106bb57565b6001548110156111a75760015f5260205f2001905f90565b634e487b7160e01b5f52603260045260245ffd5b80548210156111a7575f5260205f2001905f90565b90602080835192838152019201905f5b8181106111ed5750505090565b82516001600160a01b03168452602093840193909201916001016111e0565b90602080835192838152019201905f5b8181106112295750505090565b825184526020938401939092019160010161121c565b90601f8019910116810190811067ffffffffffffffff821117610f9157604052565b67ffffffffffffffff8111610f915760051b60200190565b8181029291811591840414171561128c57565b634e487b7160e01b5f52601160045260245ffd5b6112ac60075482611279565b901515806112c3575b6112bc5790565b5060055490565b5060055481106112b5565b51906001600160a01b03821682036106bb57565b908160209103126106bb575180151581036106bb5790565b9190820180921161128c57565b9190820391821161128c57565b80518210156111a75760209160051b010190565b9160015491828410156113ca5761133f90846112fa565b838382116113c2575b61135191611307565b61135a81611261565b611367604051918261123f565b818152601f1961137683611261565b0136602083013780945f5b83811061138e5750505050565b806113a361139e600193856112fa565b61118f565b838060a01b0391549060031b1c166113bb8286611314565b5201611381565b839150611348565b509091506040516113dc60208261123f565b5f81525f3681379190565b5f546001600160a01b031633036113fa57565b63118cdaa760e01b5f523360045260245ffd5b8054600160401b811015610f915761142a916001820181556111bb565b81546001600160a01b0393841660039290921b91821b9390911b191691909117905556fea2646970667358221220647fe623a8b645e1eb5ad294a59b1b5cebc62a4462af58cca23408fadacdef7b64736f6c634300081e003360808060405234602c5760015f556007805460ff60a81b1916600160a81b17905561319d90816100318239f35b5f80fdfe6080806040526004361015610024575b50361561001a575f80fd5b610022612eec565b005b5f3560e01c90816301ffc9a7146128835750806310bb62771461283f578063115c68c7146127c2578063150b7a02146126535780631b0e1ffa1461260a5780631c0795c3146125c85780631e77c26914612556578063256fc59a14611c4a57806331a38c8914611c2857806335c817cc14611c0b5780633e810fc8146115ab5780634025feb214611b8557806344004cc114611aaf5780634782f77914611a165780634eae51f4146119f3578063568ddfc6146119b657806366a6752414611939578063721413091461191c57806375865b6a146116475780637a55c97d1461162d5780637b103999146116015780638493eb25146115e35780638ae2421f146115ab5780638da5cb5b1461158357806397feb9261461140257806399a31333146113e0578063a31ca913146113be578063abca7290146113a1578063af434a6d146112e9578063b106d2d2146112cd578063bc197c81146110da578063bc69938914611054578063c3cf31c514610fcf578063c426320314610f00578063c55e4a0e14610dec578063cacfaa2214610d43578063ccf0002e14610cb2578063d29a4bf614610c01578063d362bd2b14610be4578063d5381e8014610b2f578063d677947e14610b0b578063db2e21bc146106c1578063f23a6e6114610589578063f46b8f82146102b8578063f6326fb3146102a55763fd6f66431461022a575f61000f565b346102a1575f3660031901126102a15760025461024681612e97565b905f5b81811061026a576040516020808252819061026690820186612a26565b0390f35b8061027660019261296b565b838060a01b0391549060031b1c165f52600360205260405f205461029a8286612d97565b5201610249565b5f80fd5b5f3660031901126102a157610022612eec565b346102a15760403660031901126102a1576004356001600160401b0381116102a1576102e8903690600401612acb565b6024356001600160401b0381116102a157610307903690600401612b39565b6001549091906001600160a01b0316330361057b5760ff6007541661056c576103308282613037565b60025461033c81612ab4565b9061034a6040519283612a93565b808252601f1961035982612ab4565b013660208401375f5b8181106105415750505f5b6002548110156103ce578061038360019261296b565b838060a01b0391549060031b1c165f52600460205260405f2060ff1981541690556103ad8161296b565b838060a01b0391549060031b1c165f5260036020525f60408120550161036d565b50906002545f600255806104e1575b505f5b815181101561045e576001906104086001600160a01b036104018386612d97565b5116612c66565b6104128186612d97565b51828060a01b036104238386612d97565b51165f52600360205260405f2055818060a01b036104418285612d97565b51165f52600460205260405f208260ff19825416179055016103e0565b7fba9304fdf0adec6441704aeac20785e7db0582c582b508b4293733f5fbf4c7226104a3846104bf876104b18742600655604051958695608087526080870190612902565b908582036020870152612902565b908382036040850152612a26565b4260608301520390a15f5160206131485f395f51905f526020604051428152a1005b60025f527f405787fa12a823e0f2b7631cc41b3ba8828b3321ca811111fa75cd3aa3bb5ace017f405787fa12a823e0f2b7631cc41b3ba8828b3321ca811111fa75cd3aa3bb5ace5b81811061053657506103dd565b5f8155600101610529565b8061054d60019261296b565b838060a01b0391549060031b1c166105658286612d97565b5201610362565b630dc1019760e01b5f5260045ffd5b6282b42960e81b5f5260045ffd5b346102a15761059736612bc6565b50509150915060ff6007541661056c57335f52601560205260ff60405f2054161561069c575b335f52601360205260405f20825f5260205260ff60405f20541615610661575b335f52601160205260405f20825f5260205260405f206105fe828254612d34565b9055600a5460ff811615610651575b5060405191825260208201527f42fa234691156c87ff89ed9ae178d78cb7d8e64c828f7fa7e3892aa2a1a3ebef60403392a260405163f23a6e6160e01b8152602090f35b60ff1916600117600a558261060d565b335f52601360205260405f20825f5260205260405f20600160ff19825416179055335f5260126020526106978260405f20612ccc565b6105dd565b335f52601560205260405f20600160ff198254161790556106bc33612cab565b6105bd565b346102a1575f3660031901126102a1576001546001600160a01b0316330361057b5760ff6007541661056c576106f5612f59565b600160ff1960075416176007554780610ae1575b505f5b600b548110156108365761071f81612997565b90546040516370a0823160e01b81523060048201529160031b1c6001600160a01b0316602082602481845afa9182156107f8575f92610803575b508161076a575b505060010161070c565b60015460405163a9059cbb60e01b81526001600160a01b0390911660048201526024810192909252602090829060449082905f905af19081156107f8575f916107ca575b50156107bb578180610760565b6312171d8360e31b5f5260045ffd5b6107eb915060203d81116107f1575b6107e38183612a93565b810190612d7f565b826107ae565b503d6107d9565b6040513d5f823e3d90fd5b9091506020813d821161082e575b8161081e60209383612a93565b810103126102a157519083610759565b3d9150610811565b5f5b600f548110156109675761084b816129af565b60018060a01b0391549060031b1c1690815f52600d60205260405f20604051808260208294549384815201905f5260205f20925f5b81811061094e57505061089592500382612a93565b5f5b8151811015610942576108aa8183612d97565b5190845f52600e60205260405f20825f5260205260ff60405f2054166108d5575b6001915001610897565b6001546001600160a01b0316853b156102a157604051632142170760e11b81523060048201526001600160a01b0391909116602482015260448101929092525f8260648183895af19182156107f857600192610932575b506108cb565b5f61093c91612a93565b8561092c565b50506001915001610838565b8454835260019485019486945060209093019201610880565b5f5b601454811015610aa65761097c816129c7565b60018060a01b0391549060031b1c1690815f52601260205260405f20604051808260208294549384815201905f5260205f20925f5b818110610a8d5750506109c692500382612a93565b5f5b8151811015610a81576109db8183612d97565b5190845f52601160205260405f20825f5260205260405f20549182610a06575b5060019150016109c8565b6001546001600160a01b031690863b156102a157604051637921219560e11b81523060048201526001600160a01b039290921660248301526044820152606481019290925260a060848301525f60a483018190528260c48183895af19182156107f857600192156109fb575f610a7b91612a93565b856109fb565b50506001915001610969565b84548352600194850194869450602090930192016109b1565b60018060a01b03600154167f23d6711a1d031134a36921253c75aa59e967d38e369ac625992824315e204f206020604051428152a260015f55005b6001545f918291829182916001600160a01b03165af1610aff612d41565b50156107bb5780610709565b346102a1575f3660031901126102a1576020610b25612ec9565b6040519015158152f35b346102a1575f3660031901126102a1576001546001600160a01b03163381900361057b5760ff6007541661056c5760ff600a5416610bd557600854908115610bc6575f8080848194826008555af1610b85612d41565b50156107bb576001546040519182526001600160a01b0316907f78473f3f373f7673597f4f0fa5873cb4d375fea6d4339ad6b56dbd411513cb3f90602090a2005b635373815f60e01b5f5260045ffd5b63671b9d6f60e01b5f5260045ffd5b346102a1575f3660031901126102a1576020600554604051908152f35b346102a15760403660031901126102a157610c1a6128d6565b6001546001600160a01b0316330361057b5760ff6007541661056c576001600160a01b0316803b156102a157604051632142170760e11b815233600482015230602480830191909152356044820152905f908290818381606481015b03925af180156107f857610ca2575b426006555f5160206131485f395f51905f526020604051428152a1005b5f610cac91612a93565b80610c85565b346102a1575f3660031901126102a157604051600f80548083525f91825260208301917f8d1108e10bcb7c27dddfc02ed9d693a074039d026cf4ea4240b40f7d581ac80291905b818110610d245761026685610d1081870382612a93565b604051918291602083526020830190612902565b82546001600160a01b0316845260209093019260019283019201610cf9565b346102a15760803660031901126102a157610d5c6128d6565b6044356064356001600160401b0381116102a157610d7e90369060040161293e565b600154919390916001600160a01b0316330361057b5760ff6007541661056c578215610ddd576001600160a01b0316803b156102a157610c76935f809460405196879586948593637921219560e11b8552602435303360048801612e47565b631f2a200560e01b5f5260045ffd5b346102a1575f3660031901126102a157600254610e0881612e97565b905f5b818110610ec9576101808360018060a01b0360015416906005549060065460ff6007541647600b54600f549160145493610e43612ec9565b95610e8f610e4f612e03565b98610e81604051610e6a81610e6381612c24565b0382612a93565b6040519e8f9e8f9081528160208201520190612902565b8c810360408e015290612a26565b9860608b015260808a0152151560a089015260c088015260e087015261010086015261012085015215156101408401526101608301520390f35b80610ed560019261296b565b838060a01b0391549060031b1c165f52600360205260405f2054610ef98286612d97565b5201610e0b565b346102a157610f0e36612bc6565b9192909460018060a01b0360015416330361057b5760ff6007541661056c57610f35612f59565b6001600160a01b03851615610fc0578315610ddd576001600160a01b031691823b156102a1575f94610f80869260405198899788968795637921219560e11b87523060048801612e47565b03925af180156107f857610fb0575b426006555f5160206131485f395f51905f526020604051428152a160015f55005b5f610fba91612a93565b80610f8f565b63d92e233d60e01b5f5260045ffd5b5f3660031901126102a1576001546001600160a01b0316330361057b5760ff6007541661056c573415610ddd5761100834600854612d34565b6008556040513481527f4b3f93ddc1a0d0b62a4542a17548df59d6784c5758e6a36484de61469bf6536360203392a2426006555f5160206131485f395f51905f526020604051428152a1005b346102a15760203660031901126102a1576001600160a01b036110756128d6565b165f52600d60205260405f206040519081602082549182815201915f5260205f20905f5b8181106110c457610266856110b081870382612a93565b604051918291602083526020830190612a26565b8254845260209093019260019283019201611099565b346102a15760a03660031901126102a1576110f36128d6565b506110fc6128ec565b506044356001600160401b0381116102a15761111c903690600401612b96565b906064356001600160401b0381116102a15761113c903690600401612b96565b6084356001600160401b0381116102a15761115b90369060040161293e565b505060ff6007541661056c578084036102a1575f93335f52601560205260ff60405f205416156112a8575b5f5b8181106111cc5785806111bf575b6111ad575b60405163bc197c8160e01b8152602090f35b600160ff19600a541617600a5561119b565b5060ff600a541615611196565b6111d7818387612e37565b356111e3828587612e37565b35335f52601360205260405f20825f5260205260ff60405f20541615611263575b9060019291335f52601160205260405f20825f5260205260405f2061122a828254612d34565b905560405191825260208201527f42fa234691156c87ff89ed9ae178d78cb7d8e64c828f7fa7e3892aa2a1a3ebef60403392a201611188565b965090600191335f52601360205260405f20815f5260205260405f208360ff19825416179055335f52601260205261129e8160405f20612ccc565b9196909190611204565b335f52601560205260405f20600160ff198254161790556112c833612cab565b611186565b346102a1575f3660031901126102a1576020604051610e108152f35b346102a15760203660031901126102a157600154600435906001600160a01b0316330361057b5760ff6007541661056c57610e1081108015611394575b6113855760607fbf13602096f3021e39ce62b6e915308841dbdc9b8421bdaaba2a4aa701a1dee1916005549080600555426006556040519182526020820152426040820152a15f5160206131485f395f51905f526020604051428152a1005b6302e8f35960e31b5f5260045ffd5b506312cc03008111611326565b346102a1575f3660031901126102a1576020600854604051908152f35b346102a1575f3660031901126102a15760206113d8612e03565b604051908152f35b346102a1575f3660031901126102a157602060ff600a54166040519015158152f35b346102a15760403660031901126102a15761141b6128d6565b60015460243591906001600160a01b0316330361057b5760ff6007541661056c57611444612f59565b8115610ddd576001600160a01b03165f818152600c602052604090205490919060ff1615611516575b6040516323b872dd60e01b8152336004820152306024820152604481018290526020816064815f875af19081156107f8575f916114f7575b50156107bb5760207fab79632de7fe1724598ce2214eaa326d90d48064d2d3397406ecc5769316a5f69142600655604051908152a25f5160206131485f395f51905f526020604051428152a160015f55005b611510915060203d6020116107f1576107e38183612a93565b836114a5565b815f52600c60205260405f20600160ff19825416179055600b54600160401b81101561156f5780600161154e9201600b55600b612a11565b81546001600160a01b0360039290921b91821b19169084901b17905561146d565b634e487b7160e01b5f52604160045260245ffd5b346102a1575f3660031901126102a1576001546040516001600160a01b039091168152602090f35b346102a15760203660031901126102a1576001600160a01b036115cc6128d6565b165f526003602052602060405f2054604051908152f35b346102a1575f3660031901126102a15760206040516312cc03008152f35b346102a1575f3660031901126102a15760075460405160089190911c6001600160a01b03168152602090f35b346102a1575f3660031901126102a15760206113d8612dab565b60c03660031901126102a15761165b6128d6565b6024356001600160401b0381116102a15761167a903690600401612acb565b906044356001600160401b0381116102a15761169a903690600401612b39565b91608435916064356001600160a01b03841684036102a15760a4359160075460ff8160a81c1661190e5760ff60a81b1916600160a81b176007556001600160a01b03168015610fc057610e1082108015611901575b611385576116fd8685613037565b6bffffffffffffffffffffffff60a01b60015416176001555f5b835181101561178e576001906117386001600160a01b036104018388612d97565b6117428188612d97565b51828060a01b036117538388612d97565b51165f52600360205260405f2055818060a01b036117718287612d97565b51165f52600460205260405f208260ff1982541617905501611717565b50915091816005554260065560075490610100600160a81b039060081b16906affffffffffffffffffffff60a81b16176007558160095560ff19600a5416600a555f923492806118ac575b5061182f7ffd6dcf677423d8702d1e90fb76edc6af130ccf1a14c3286b82de30f455af50d79160018060a01b0360015416936040519283926080845261182160808501612c24565b908482036020860152612a26565b9060408301524260608301520390a28061187a575b508061184c57005b6040519081527f4b3f93ddc1a0d0b62a4542a17548df59d6784c5758e6a36484de61469bf6536360203392a2005b6040519081527f6c703791f399558807424f489ccd811c72b4ff0b74af547264fad7c646776df060203392a281611844565b925092508134106118f2577ffd6dcf677423d8702d1e90fb76edc6af130ccf1a14c3286b82de30f455af50d761182f83946118e78534612d00565b9460085591506117d9565b6350ff61c160e01b5f5260045ffd5b506312cc030082116116ef565b62dc149f60e41b5f5260045ffd5b346102a1575f3660031901126102a1576020600954604051908152f35b346102a1575f3660031901126102a157604051601480548083525f91825260208301917fce6d7b5282bd9a3661ae061feed1dbda4e52ab073b1f9285be6e155d9c38d4ec91905b8181106119975761026685610d1081870382612a93565b82546001600160a01b0316845260209093019260019283019201611980565b346102a15760203660031901126102a1576001600160a01b036119d76128d6565b165f526004602052602060ff60405f2054166040519015158152f35b346102a1575f3660031901126102a157610266604051610d1081610e6381612c24565b346102a15760403660031901126102a1576004356001600160a01b038116908190036102a15760015460243591906001600160a01b0316330361057b5760ff6007541661056c57611a65612f59565b8015610fc0578115610ddd57478211610bc6575f80809381935af1611a88612d41565b50156107bb57426006555f5160206131485f395f51905f526020604051428152a160015f55005b346102a157611abd36612a59565b6001546001600160a01b0316330361057b5760ff6007541661056c57611ae1612f59565b6001600160a01b03821615610fc0578015610ddd5760405163a9059cbb60e01b81526001600160a01b0390921660048301526024820152906020908290815f816044810103926001600160a01b03165af19081156107f8575f91611b665750156107bb57426006555f5160206131485f395f51905f526020604051428152a160015f55005b611b7f915060203d6020116107f1576107e38183612a93565b81611a88565b346102a157611b9336612a59565b6001549092906001600160a01b0316330361057b5760ff6007541661056c576001600160a01b03821615610fc0576001600160a01b031691823b156102a157604051632142170760e11b81523060048201526001600160a01b0390921660248301526044820152905f90829081838160648101610c76565b346102a1575f3660031901126102a1576020600654604051908152f35b346102a1575f3660031901126102a157602060ff600754166040519015158152f35b346102a1575f3660031901126102a15760ff6007541661056c57611c6c612f59565b611c74612ec9565b15612547576007805460ff19166001179081905560405163020c5e6d60e41b81525f91829182916020908290600490829060081c6001600160a01b03165afa5f9181612513575b5061250b575b50600a5460ff16801561250457611cd6612dab565b905b806124f9575b6124ea57611cef4760085490612d00565b915f92806123cc575b505f5b600b54811015611f5057611d0e81612997565b90546040516370a0823160e01b81523060048201529160031b1c6001600160a01b0316602082602481845afa9182156107f8575f92611f1d575b5081611d59575b5050600101611cfb565b60019650908088611e9d575b508015611d4f575f875b611d7a575b50611d4f565b600254811015611e9857611d8d8161296b565b60018060a01b0391549060031b1c165f52600360205287612710611db560405f205485612d21565b0480611dc6575b5080910190611d6f565b9050611e0f602082611dd78561296b565b905460405163a9059cbb60e01b815260039290921b1c6001600160a01b03166004820152602481019190915291829081906044820190565b03815f895af19081156107f8575f91611e7a575b50156107bb5788918291857fe11fb810155d1e288b49c8619d9dbb4549d8f1fd6dda3c5b14aacbfd10b53b736020611e5a8561296b565b905460405195865260039190911b1c6001600160a01b031693a391611dbc565b611e92915060203d81116107f1576107e38183612a93565b8b611e23565b611d74565b9050611eb7612710611eaf8a84612d21565b048092612d00565b908015611d655760075460405163a9059cbb60e01b815260089190911c6001600160a01b0316600482015260248101919091526020816044815f875af180156107f85715611d6557611f169060203d81116107f1576107e38183612a93565b5088611d65565b9091506020813d8211611f48575b81611f3860209383612a93565b810103126102a157519088611d48565b3d9150611f2b565b50839291925f925b600f548410156120c457611f6b846129af565b60018060a01b0391549060031b1c1694855f52600d60205260405f209360405180958691602082549182815201915f5260205f20905f905b8082106120ac5750505090611fb9910386612a93565b5f5b855181101561209b57611fce8187612d97565b51885f52600e60205260405f20815f5260205260ff60405f205416611ff7575b50600101611fbb565b600195509061200582612f77565b91893b156102a157604051632142170760e11b81523060048201526001600160a01b038416602482015260448101829052925f84606481838f5af19384156107f85760208c927f787f0d20046a9d78e1e5000bff3ec2d52ccac95a65c50cfd96534307571412c79260019761208b575b50604051948552868060a01b031693a390611fee565b5f61209591612a93565b8e612075565b509350936001919550019293611f58565b90919260016020819286548152019401920190611fa3565b849293505f925b6014548410156122d9576120de846129c7565b60018060a01b0391549060031b1c1694855f52601260205260405f209360405180958691602082549182815201915f5260205f20905f905b8082106122c1575050509061212c910386612a93565b5f5b85518110156122b0576121418187612d97565b51885f52601160205260405f20815f5260205260405f2054908161216a575b505060010161212e565b60019350905f845b61217d575b50612160565b6002548110156122ab576121908161296b565b60018060a01b0391549060031b1c165f526003602052846127106121b860405f205485612d21565b04806121c9575b5080910190612172565b90506121d48261296b565b905460039190911b1c6001600160a01b0316918c3b156102a157604051637921219560e11b81523060048201526001600160a01b039093166024840152604483018590526064830182905260a060848401525f60a48401819052838e81838160c4810103925af19182156107f8578793849361229b575b508d7f1ded93f95818f97b8aa2deb2bba85a8641bac2ef8edc112d6fc8e3d2d86202d860406122798561296b565b60018060a01b0391549060031b1c16938151908a82526020820152a3916121bf565b5f6122a591612a93565b8e61224b565b612177565b5093509360019195500192936120cb565b90919260016020819286548152019401920190612116565b84935060ff600a5416806123c3575b612370575b5080612347575b5015610bc6577f92ac90467de47b9b7199ee653911359a4f91596f711dfaa9c6fcb19f87788b4460406123256129df565b60018060a01b0391549060031b1c16928151904282526020820152a260015f55005b6007545f9182918291829160081c6001600160a01b03165af150612369612d41565b50826122f4565b60085481811015612382575b506122ed565b5f8061239e84809861239684978597612d00565b600855612d34565b60075490979060081c6001600160a01b03165af1506123bb612d41565b50838061237c565b508015156122e8565b935060018094866124ce575b846123e291612d00565b806123ee575b50611cf8565b5f825b6123fc575b506123e8565b6002548110156124c95761240f8161296b565b60018060a01b0391549060031b1c165f52600360205261271061243660405f205484612d21565b0480612446575b508201826123f1565b9092505f808080846124578861296b565b905460039190911b1c6001600160a01b03165af1612473612d41565b50156107bb57869283917f55083a582b32208b745a21c8ce4f8d545be8cce1437f34637f08fc9d943eacb060206124a98461296b565b905460405194855260039190911b1c6001600160a01b031692a29061243d565b6123f6565b935050506127106124df8584612d21565b0491829084906123d8565b637806a4f560e11b5f5260045ffd5b508060085410611cde565b5f90611cd8565b925083611cc1565b9091506020813d60201161253f575b8161252f60209383612a93565b810103126102a157519085611cbb565b3d9150612522565b63785bbc6d60e11b5f5260045ffd5b346102a15760203660031901126102a1576001600160a01b036125776128d6565b165f52601260205260405f206040519081602082549182815201915f5260205f20905f5b8181106125b257610266856110b081870382612a93565b825484526020909301926001928301920161259b565b346102a15760203660031901126102a1576004356002548110156102a1576125f160209161296b565b905460405160039290921b1c6001600160a01b03168152f35b346102a1575f3660031901126102a1576001546001600160a01b0316330361057b5760ff6007541661056c57426006555f5160206131485f395f51905f526020604051428152a1005b346102a15760803660031901126102a15761266c6128d6565b506126756128ec565b506044356064356001600160401b0381116102a15761269890369060040161293e565b505060ff6007541661056c57335f52601060205260ff60405f20541615612769575b335f52600e60205260405f20815f5260205260ff60405f205416156126ec575b604051630a85bd0160e11b8152602090f35b335f52600e60205260405f20815f5260205260405f20600160ff19825416179055335f52600d6020526127228160405f20612ccc565b6040519081527fa2d003d5da09c66f819593df4005002649b2d85f2bcb235106733d6655cb25a860203392a2600a5460ff81166126da5760ff1916600117600a55806126da565b335f52601060205260405f20600160ff19825416179055600f54600160401b81101561156f578060016127a19201600f55600f612a11565b81546001600160a01b0360039290921b91821b19163390911b1790556126ba565b346102a1575f3660031901126102a157604051600b80548083525f91825260208301917f0175b7a638427703f0dbe7bb9bbf987a2551717b34e79f33b5b1008d1fa01db991905b8181106128205761026685610d1081870382612a93565b82546001600160a01b0316845260209093019260019283019201612809565b346102a15760403660031901126102a1576001600160a01b036128606128d6565b165f52601160205260405f206024355f52602052602060405f2054604051908152f35b346102a15760203660031901126102a1576004359063ffffffff60e01b82168092036102a157602091630a85bd0160e11b81149081156128c5575b5015158152f35b630271189760e51b149050836128be565b600435906001600160a01b03821682036102a157565b602435906001600160a01b03821682036102a157565b90602080835192838152019201905f5b81811061291f5750505090565b82516001600160a01b0316845260209384019390920191600101612912565b9181601f840112156102a1578235916001600160401b0383116102a157602083818601950101116102a157565b6002548110156129835760025f5260205f2001905f90565b634e487b7160e01b5f52603260045260245ffd5b600b5481101561298357600b5f5260205f2001905f90565b600f5481101561298357600f5f5260205f2001905f90565b6014548110156129835760145f5260205f2001905f90565b600254156129835760025f9081527f405787fa12a823e0f2b7631cc41b3ba8828b3321ca811111fa75cd3aa3bb5ace91565b8054821015612983575f5260205f2001905f90565b90602080835192838152019201905f5b818110612a435750505090565b8251845260209384019390920191600101612a36565b60609060031901126102a1576004356001600160a01b03811681036102a157906024356001600160a01b03811681036102a1579060443590565b90601f801991011681019081106001600160401b0382111761156f57604052565b6001600160401b03811161156f5760051b60200190565b9080601f830112156102a157813590612ae382612ab4565b92612af16040519485612a93565b82845260208085019360051b8201019182116102a157602001915b818310612b195750505090565b82356001600160a01b03811681036102a157815260209283019201612b0c565b9080601f830112156102a1578135612b5081612ab4565b92612b5e6040519485612a93565b81845260208085019260051b8201019283116102a157602001905b828210612b865750505090565b8135815260209182019101612b79565b9181601f840112156102a1578235916001600160401b0383116102a1576020808501948460051b0101116102a157565b60a06003198201126102a1576004356001600160a01b03811681036102a157916024356001600160a01b03811681036102a157916044359160643591608435906001600160401b0382116102a157612c209160040161293e565b9091565b602060025491828152019060025f5260205f20905f5b818110612c475750505090565b82546001600160a01b0316845260209093019260019283019201612c3a565b600254600160401b81101561156f57806001612c8792016002556002612a11565b81546001600160a01b0393841660039290921b91821b9390911b1916919091179055565b601454600160401b81101561156f57806001612c8792016014556014612a11565b8054600160401b81101561156f57612ce991600182018155612a11565b819291549060031b91821b915f19901b1916179055565b91908203918211612d0d57565b634e487b7160e01b5f52601160045260245ffd5b81810292918115918404141715612d0d57565b91908201809211612d0d57565b3d15612d7a573d906001600160401b03821161156f5760405191612d6f601f8201601f191660200184612a93565b82523d5f602084013e565b606090565b908160209103126102a1575180151581036102a15790565b80518210156129835760209160051b010190565b60ff600a541615612dff57612dc5600f5460145490612d34565b8015612dfa5766038d7ea4c68000810290810466038d7ea4c6800003612d0d576009549081811015612df5575090565b905090565b505f90565b5f90565b60ff60075416612dff57612e1960065442612d00565b6005549081811015612e3157612e2e91612d00565b90565b50505f90565b91908110156129835760051b0190565b6001600160a01b039182168152911660208201526040810191909152606081019190915260a060808201819052810183905260c09290918190848401375f828201840152601f01601f1916010190565b90612ea182612ab4565b612eae6040519182612a93565b8281528092612ebf601f1991612ab4565b0190602036910137565b60ff600754161580612ed85790565b50612ee560065442612d00565b6005541090565b60ff6007541661056c573415610ddd576040513481527f6c703791f399558807424f489ccd811c72b4ff0b74af547264fad7c646776df060203392a26001546001600160a01b03163314612f3c57565b426006555f5160206131485f395f51905f526020604051428152a1565b60025f5414612f685760025f55565b633ee5aeb560e01b5f5260045ffd5b600254906001821461302d576127105f916040516020810191825242604082015260408152612fa7606082612a93565b519020065f915b838310612fe1575050505f198101908111612d0d57612fcc9061296b565b905460039190911b1c6001600160a01b031690565b61300f90612fee8461296b565b60018060a01b0391549060031b1c165f52600360205260405f205490612d34565b918282106130205760010191612fae565b915050612fcc915061296b565b5050612fcc6129df565b90918151156130eb57600a8251116131385781518351036130eb575f905b82518210156130fa576001600160a01b036130708385612d97565b511615610fc05760018201808311612d0d575b83518110156130d0576001600160a01b0361309e8486612d97565b51166001600160a01b036130b28387612d97565b5116146130c157600101613083565b63a7ed968360e01b5f5260045ffd5b50906130dc8185612d97565b51156130eb5760010190613055565b6331a2956d60e11b5f5260045ffd5b9150505f5f905b83518210156131295761312160019161311a8487612d97565b5190612d34565b910190613101565b9192505061270f19016130eb57565b630c32dc9760e31b5f5260045ffdfeb0b11ee556478970296b54b539c74aa54c7302b06d020618369f7e5db4b8c9a6a264697066735822122007593492f1924ef14f090f290cb43b890eb54de56b779724eaa80d1d6d5598b964736f6c634300081e0033","linkReferences":{}},"methodIdentifiers":{"MAX_CREATION_FEE_PERCENT()":"1df5be2a","allVaults(uint256)":"9094a91e","calculateCreationFee(uint256)":"c1757e36","calculateMinNFTFee(uint256)":"185a31cd","createVault(address[],uint256[],uint256,uint256)":"cceeb72d","creationFeePercent()":"00a66259","defaultNFTFee()":"a5ce6e12","feeCollector()":"c415b95c","getVaultDetails(address)":"67a44ca3","getVaults(uint256,uint256)":"b98cca37","getVaultsByHeir(address)":"232f57ac","getVaultsByOwner(address)":"ac818711","implementation()":"5c60da1b","isValidVault(address)":"64219450","isVault(address)":"652b9b41","maxNFTFee()":"543db66e","minNFTFee()":"26b1733e","owner()":"8da5cb5b","renounceOwnership()":"715018a6","setCreationFee(uint256)":"b7d86225","setFeeCollector(address)":"a42dce80","setNFTFeeConfig(uint256,uint256,uint256)":"2abf3b49","setVaultRegistry(address)":"cb91dd7b","totalVaults()":"8d654023","transferOwnership(address)":"f2fde38b","vaultRegistry()":"cdd7b38a","vaultsByHeir(address,uint256)":"e8ced56d","vaultsByOwner(address,uint256)":"1a0121db","withdrawFees()":"476343ee"},"id":46}