{"abi":[{"type":"constructor","inputs":[],"stateMutability":"nonpayable"},{"type":"function","name":"MAX_CREATION_FEE_PERCENT","inputs":[],"outputs":[{"name":"","type":"uint256","internalType":"uint256"}],"stateMutability":"view"},{"type":"function","name":"allVaults","inputs":[{"name":"","type":"uint256","internalType":"uint256"}],"outputs":[{"name":"","type":"address","internalType":"address"}],"stateMutability":"view"},{"type":"function","name":"calculateCreationFee","inputs":[{"name":"depositAmount","type":"uint256","internalType":"uint256"}],"outputs":[{"name":"fee","type":"uint256","internalType":"uint256"}],"stateMutability":"view"},{"type":"function","name":"calculateMinNFTFee","inputs":[{"name":"estimatedNFTCount","type":"uint256","internalType":"uint256"}],"outputs":[{"name":"fee","type":"uint256","internalType":"uint256"}],"stateMutability":"view"},{"type":"function","name":"createVault","inputs":[{"name":"heir","type":"address","internalType":"address"},{"name":"inactivityPeriod","type":"uint256","internalType":"uint256"},{"name":"estimatedNFTCount","type":"uint256","internalType":"uint256"}],"outputs":[{"name":"vault","type":"address","internalType":"address"}],"stateMutability":"payable"},{"type":"function","name":"createVault","inputs":[{"name":"heir","type":"address","internalType":"address"},{"name":"inactivityPeriod","type":"uint256","internalType":"uint256"}],"outputs":[{"name":"vault","type":"address","internalType":"address"}],"stateMutability":"payable"},{"type":"function","name":"createVault","inputs":[{"name":"_heirs","type":"address[]","internalType":"address[]"},{"name":"_percentages","type":"uint256[]","internalType":"uint256[]"},{"name":"inactivityPeriod","type":"uint256","internalType":"uint256"},{"name":"estimatedNFTCount","type":"uint256","internalType":"uint256"}],"outputs":[{"name":"vault","type":"address","internalType":"address"}],"stateMutability":"payable"},{"type":"function","name":"creationFeePercent","inputs":[],"outputs":[{"name":"","type":"uint256","internalType":"uint256"}],"stateMutability":"view"},{"type":"function","name":"defaultNFTFee","inputs":[],"outputs":[{"name":"","type":"uint256","internalType":"uint256"}],"stateMutability":"view"},{"type":"function","name":"feeCollector","inputs":[],"outputs":[{"name":"","type":"address","internalType":"address"}],"stateMutability":"view"},{"type":"function","name":"getVaultDetails","inputs":[{"name":"vault","type":"address","internalType":"address"}],"outputs":[{"name":"owner","type":"address","internalType":"address"},{"name":"heirs","type":"address[]","internalType":"address[]"},{"name":"percentages","type":"uint256[]","internalType":"uint256[]"},{"name":"inactivityPeriod","type":"uint256","internalType":"uint256"},{"name":"lastActiveTimestamp","type":"uint256","internalType":"uint256"},{"name":"executed","type":"bool","internalType":"bool"},{"name":"ethBalance","type":"uint256","internalType":"uint256"},{"name":"canDistribute","type":"bool","internalType":"bool"}],"stateMutability":"view"},{"type":"function","name":"getVaults","inputs":[{"name":"offset","type":"uint256","internalType":"uint256"},{"name":"limit","type":"uint256","internalType":"uint256"}],"outputs":[{"name":"vaults","type":"address[]","internalType":"address[]"},{"name":"total","type":"uint256","internalType":"uint256"}],"stateMutability":"view"},{"type":"function","name":"getVaultsByHeir","inputs":[{"name":"heir","type":"address","internalType":"address"}],"outputs":[{"name":"","type":"address[]","internalType":"address[]"}],"stateMutability":"view"},{"type":"function","name":"getVaultsByOwner","inputs":[{"name":"owner","type":"address","internalType":"address"}],"outputs":[{"name":"","type":"address[]","internalType":"address[]"}],"stateMutability":"view"},{"type":"function","name":"implementation","inputs":[],"outputs":[{"name":"","type":"address","internalType":"address"}],"stateMutability":"view"},{"type":"function","name":"isValidVault","inputs":[{"name":"vault","type":"address","internalType":"address"}],"outputs":[{"name":"","type":"bool","internalType":"bool"}],"stateMutability":"view"},{"type":"function","name":"isVault","inputs":[{"name":"","type":"address","internalType":"address"}],"outputs":[{"name":"","type":"bool","internalType":"bool"}],"stateMutability":"view"},{"type":"function","name":"maxNFTFee","inputs":[],"outputs":[{"name":"","type":"uint256","internalType":"uint256"}],"stateMutability":"view"},{"type":"function","name":"minNFTFee","inputs":[],"outputs":[{"name":"","type":"uint256","internalType":"uint256"}],"stateMutability":"view"},{"type":"function","name":"owner","inputs":[],"outputs":[{"name":"","type":"address","internalType":"address"}],"stateMutability":"view"},{"type":"function","name":"renounceOwnership","inputs":[],"outputs":[],"stateMutability":"nonpayable"},{"type":"function","name":"setCreationFee","inputs":[{"name":"newFeePercent","type":"uint256","internalType":"uint256"}],"outputs":[],"stateMutability":"nonpayable"},{"type":"function","name":"setFeeCollector","inputs":[{"name":"newCollector","type":"address","internalType":"address"}],"outputs":[],"stateMutability":"nonpayable"},{"type":"function","name":"setNFTFeeConfig","inputs":[{"name":"_minFee","type":"uint256","internalType":"uint256"},{"name":"_maxFee","type":"uint256","internalType":"uint256"},{"name":"_defaultFee","type":"uint256","internalType":"uint256"}],"outputs":[],"stateMutability":"nonpayable"},{"type":"function","name":"setVaultRegistry","inputs":[{"name":"_registry","type":"address","internalType":"address"}],"outputs":[],"stateMutability":"nonpayable"},{"type":"function","name":"totalVaults","inputs":[],"outputs":[{"name":"","type":"uint256","internalType":"uint256"}],"stateMutability":"view"},{"type":"function","name":"transferOwnership","inputs":[{"name":"newOwner","type":"address","internalType":"address"}],"outputs":[],"stateMutability":"nonpayable"},{"type":"function","name":"vaultRegistry","inputs":[],"outputs":[{"name":"","type":"address","internalType":"address"}],"stateMutability":"view"},{"type":"function","name":"vaultsByHeir","inputs":[{"name":"","type":"address","internalType":"address"},{"name":"","type":"uint256","internalType":"uint256"}],"outputs":[{"name":"","type":"address","internalType":"address"}],"stateMutability":"view"},{"type":"function","name":"vaultsByOwner","inputs":[{"name":"","type":"address","internalType":"address"},{"name":"","type":"uint256","internalType":"uint256"}],"outputs":[{"name":"","type":"address","internalType":"address"}],"stateMutability":"view"},{"type":"function","name":"withdrawFees","inputs":[],"outputs":[],"stateMutability":"nonpayable"},{"type":"event","name":"CreationFeeUpdated","inputs":[{"name":"oldFee","type":"uint256","indexed":false,"internalType":"uint256"},{"name":"newFee","type":"uint256","indexed":false,"internalType":"uint256"}],"anonymous":false},{"type":"event","name":"FeeCollectorUpdated","inputs":[{"name":"oldCollector","type":"address","indexed":true,"internalType":"address"},{"name":"newCollector","type":"address","indexed":true,"internalType":"address"}],"anonymous":false},{"type":"event","name":"FeesWithdrawn","inputs":[{"name":"to","type":"address","indexed":true,"internalType":"address"},{"name":"amount","type":"uint256","indexed":false,"internalType":"uint256"}],"anonymous":false},{"type":"event","name":"NFTFeeConfigUpdated","inputs":[{"name":"minFee","type":"uint256","indexed":false,"internalType":"uint256"},{"name":"maxFee","type":"uint256","indexed":false,"internalType":"uint256"},{"name":"defaultFee","type":"uint256","indexed":false,"internalType":"uint256"}],"anonymous":false},{"type":"event","name":"OwnershipTransferred","inputs":[{"name":"previousOwner","type":"address","indexed":true,"internalType":"address"},{"name":"newOwner","type":"address","indexed":true,"internalType":"address"}],"anonymous":false},{"type":"event","name":"VaultCreated","inputs":[{"name":"vault","type":"address","indexed":true,"internalType":"address"},{"name":"owner","type":"address","indexed":true,"internalType":"address"},{"name":"heirs","type":"address[]","indexed":false,"internalType":"address[]"},{"name":"percentages","type":"uint256[]","indexed":false,"internalType":"uint256[]"},{"name":"inactivityPeriod","type":"uint256","indexed":false,"internalType":"uint256"},{"name":"timestamp","type":"uint256","indexed":false,"internalType":"uint256"},{"name":"depositAmount","type":"uint256","indexed":false,"internalType":"uint256"},{"name":"feeAmount","type":"uint256","indexed":false,"internalType":"uint256"}],"anonymous":false},{"type":"event","name":"VaultRegistered","inputs":[{"name":"vault","type":"address","indexed":true,"internalType":"address"},{"name":"registry","type":"address","indexed":true,"internalType":"address"}],"anonymous":false},{"type":"error","name":"ERC1167FailedCreateClone","inputs":[]},{"type":"error","name":"InsufficientValue","inputs":[]},{"type":"error","name":"InvalidFeePercent","inputs":[]},{"type":"error","name":"InvalidNFTFee","inputs":[]},{"type":"error","name":"InvalidPeriod","inputs":[]},{"type":"error","name":"NotVault","inputs":[]},{"type":"error","name":"OwnableInvalidOwner","inputs":[{"name":"owner","type":"address","internalType":"address"}]},{"type":"error","name":"OwnableUnauthorizedAccount","inputs":[{"name":"account","type":"address","internalType":"address"}]},{"type":"error","name":"VaultCreationFailed","inputs":[]},{"type":"error","name":"WithdrawalFailed","inputs":[]},{"type":"error","name":"ZeroAddress","inputs":[]}],"bytecode":{"object":"0x60a0806040523461010c5733156100f9575f8054336001600160a01b0319821681178355916001600160a01b03909116907f8be0079c531659141344cd1fd0a4f28419497f9722a3daafe3b4186f6b6457e09080a3602860035566038d7ea4c680006005819055662386f26fc100006006556007556131cb8181016001600160401b038111838210176100e5578291611a03833903905ff080156100da576001600160a01b0316608052600480546001600160a01b031916331790556040516118f290816101118239608051818181610c120152610edf0152f35b6040513d5f823e3d90fd5b634e487b7160e01b5f52604160045260245ffd5b631e4fbdf760e01b5f525f60045260245ffd5b5f80fdfe6080806040526004361015610012575f80fd5b5f905f3560e01c908162a662591461123a57508063185a31cd146112145780631a0121db146111cb5780631df5be2a146111b0578063232f57ac1461113557806326b1733e146111185780632abf3b4914611085578063476343ee14610fba578063486b0acb14610f2b578063543db66e14610f0e5780635c60da1b14610eca5780635f76dfc014610b785780636421945014610b39578063652b9b4114610b3957806367a44ca314610701578063715018a6146106a85780638d6540231461068a5780638da5cb5b146106635780639094a91e14610638578063a42dce80146105b4578063a5ce6e1214610596578063ac81871114610503578063b7d8622514610495578063b98cca3714610454578063c1757e3614610426578063c415b95c146103fd578063cb91dd7b146103b8578063cceeb72d14610286578063cdd7b38a1461025d578063e8ced56d146101fc5763f2fde38b14610172575f80fd5b346101f95760203660031901126101f95761018b611254565b610193611571565b6001600160a01b031680156101e5575f80546001600160a01b03198116831782556001600160a01b0316907f8be0079c531659141344cd1fd0a4f28419497f9722a3daafe3b4186f6b6457e09080a380f35b631e4fbdf760e01b82526004829052602482fd5b80fd5b50346101f95760403660031901126101f957610216611254565b6001600160a01b03168152600960205260408120805460243592908310156101f95760206102448484611296565b905460405160039290921b1c6001600160a01b03168152f35b50346101f957806003193601126101f9576002546040516001600160a01b039091168152602090f35b5060803660031901126101f9576004359067ffffffffffffffff82116101f957366023830112156101f95781600401356102bf8161133c565b926102cd604051948561131a565b8184526024602085019260051b820101903682116103b457602401915b818310610390575050506024359167ffffffffffffffff831161038c573660238401121561038c578260040135906103218261133c565b9161032f604051938461131a565b8083526024602084019160051b860101933685116101f95750602460209501905b84821061037d57505061036b92506064359160443591611597565b6040516001600160a01b039091168152f35b81358152908501908501610350565b5080fd5b82356001600160a01b03811681036103b0578152602092830192016102ea565b5f80fd5b8380fd5b50346101f95760203660031901126101f9576103d2611254565b6103da611571565b60018060a01b03166bffffffffffffffffffffffff60a01b600254161760025580f35b50346101f957806003193601126101f9576004546040516001600160a01b039091168152602090f35b50346101f95760203660031901126101f957602061271061044b600354600435611354565b04604051908152f35b50346101f95760403660031901126101f95761048b6104776024356004356114b2565b6040519283926040845260408401906112ab565b9060208301520390f35b50346101f95760203660031901126101f9576004356104b2611571565b60c881116104f45760407f5de302eeb1c80d4fb0c0953b692353f09ddf431411b8eb2034d5e8576956191291600354908060035582519182526020820152a180f35b638a81d3b360e01b8252600482fd5b50346101f95760203660031901126101f9576001600160a01b03610525611254565b168152600860205260408120604051918260208354918281520192825260208220915b818110610577576105738561055f8187038261131a565b6040519182916020835260208301906112ab565b0390f35b82546001600160a01b0316845260209093019260019283019201610548565b50346101f957806003193601126101f9576020600754604051908152f35b50346101f95760203660031901126101f9576105ce611254565b6105d6611571565b6001600160a01b0316801561062957600480546001600160a01b0319811683179091556001600160a01b03167f5d16ad41baeb009cd23eb8f6c7cde5c2e0cd5acf4a33926ab488875c37c37f388380a380f35b63d92e233d60e01b8252600482fd5b50346101f95760203660031901126101f957600435906001548210156101f95760206102448361126a565b50346101f957806003193601126101f957546040516001600160a01b039091168152602090f35b50346101f957806003193601126101f9576020600154604051908152f35b50346101f957806003193601126101f9576106c1611571565b5f80546001600160a01b0319811682556001600160a01b03167f8be0079c531659141344cd1fd0a4f28419497f9722a3daafe3b4186f6b6457e08280a380f35b50346101f95760203660031901126101f95761071b611254565b6001600160a01b038116808352600a60205260408320549092919060ff1615610b2a57604051638da5cb5b60e01b815291602083600481875afa928315610b1d578193610ae1575b506040516313ab947d60e21b8152938185600481845afa948515610ad6578295610a37575b5060405163fd6f664360e01b8152928284600481855afa938415610a2c578394610991575b5060405163d362bd2b60e01b815293602085600481865afa948515610986578495610952575b50604051630d7205f360e21b815290602082600481875afa918215610947578592610913575b506040516331a38c8960e01b815292602084600481885afa9384156109085786946108e3575b506020600491319560405192838092636b3bca3f60e11b82525afa9586156108d757956108a2575b5061088090610872604051998a9960018060a01b03168a5261010060208b01526101008a01906112ab565b9088820360408a01526112e7565b9460608701526080860152151560a085015260c0840152151560e08301520390f35b6108809195506108c99060203d6020116108d0575b6108c1818361131a565b81019061149a565b9490610847565b503d6108b7565b604051903d90823e3d90fd5b6004919450610900602091823d84116108d0576108c1818361131a565b94915061081f565b6040513d88823e3d90fd5b9091506020813d60201161093f575b8161092f6020938361131a565b810103126103b05751905f6107f9565b3d9150610922565b6040513d87823e3d90fd5b9094506020813d60201161097e575b8161096e6020938361131a565b810103126103b05751935f6107d3565b3d9150610961565b6040513d86823e3d90fd5b9093503d8084833e6109a3818361131a565b8101906020818303126103b45780519067ffffffffffffffff8211610a2857019080601f830112156103b45781516109da8161133c565b926109e8604051948561131a565b81845260208085019260051b820101928311610a2457602001905b828210610a1457505050925f6107ad565b8151815260209182019101610a03565b8580fd5b8480fd5b6040513d85823e3d90fd5b9094503d8083833e610a49818361131a565b810190602081830312610ad25780519067ffffffffffffffff82116103b457019080601f83011215610ad2578151610a808161133c565b92610a8e604051948561131a565b81845260208085019260051b820101928311610a2857602001905b828210610aba57505050935f610788565b60208091610ac784611486565b815201910190610aa9565b8280fd5b6040513d84823e3d90fd5b9092506020813d602011610b15575b81610afd6020938361131a565b81010312610ad257610b0e90611486565b915f610763565b3d9150610af0565b50604051903d90823e3d90fd5b6362df054560e01b8252600482fd5b50346101f95760203660031901126101f95760209060ff906040906001600160a01b03610b64611254565b168152600a84522054166040519015158152f35b60403660031901126103b057610b8c611254565b602435906001600160a01b03168015610ebb576201518082108015610eae575b610e9f57612710610bbf60035434611354565b049182341115610e90576001546040513360601b6bffffffffffffffffffffffff1916602082019081526034820192909252610c369190610c0d81605481015b03601f19810183528261131a565b5190207f0000000000000000000000000000000000000000000000000000000000000000611859565b6001600160a01b03811692908315610e8157610c5285346113d7565b925f95604094855193610c65878661131a565b60018552601f1987019586366020880137875196610c83898961131a565b6001885236602089013780610c97876113a9565b52612710610ca4886113a9565b52610caf84346113d7565b6002546001600160a01b0316908a3b156103b057888b610cf95f938b610d0b968f5197889687958694633ac32db560e11b865233600487015260c0602487015260c48601906112ab565b848103600319016044860152906112e7565b908d606484015260848301528660a483015203925af18015610e7757610e55575b50927f8ecb69bad2b4358eb615dbb12c7d1b4ecc91e45f02a7cd14451a05dbf87ec85a9492610d88838b9896610d79828f8e90610d6b610dad9a6113e4565b338152600860205220611429565b8d5260096020528a8d20611429565b868b52600a602052888b20600160ff1982541617905588519485943399429287611446565b0390a36002546001600160a01b031680610dcc575b6020838351908152f35b8084913b1561038c57819060248451809481936367ccd1cb60e01b83528860048401525af18015610e4b57610e36575b50602092827ff8ee9039d8e4d43426638703c71517008894fdea742bb2d2dbff5a46fb07abdb60018060a01b03600254169280a383610dc2565b610e4184809261131a565b610ad25783610dfc565b82513d86823e3d90fd5b829a5092610e685f8b989693979561131a565b885f9b50509294909395610d2c565b89513d5f823e3d90fd5b637f44415f60e01b5f5260045ffd5b63044044a560e21b5f5260045ffd5b6302e8f35960e31b5f5260045ffd5b506312cc03008211610bac565b63d92e233d60e01b5f5260045ffd5b346103b0575f3660031901126103b0576040517f00000000000000000000000000000000000000000000000000000000000000006001600160a01b03168152602090f35b346103b0575f3660031901126103b0576020600654604051908152f35b60603660031901126103b0576020610f41611254565b610fa96040918251610f53848261131a565b60018152601f19840191823687840137845192610f70868561131a565b600184523687850137610f82826113a9565b6001600160a01b039091169052612710610f9b836113a9565b526044359160243591611597565b90516001600160a01b039091168152f35b346103b0575f3660031901126103b057610fd2611571565b475f8080808460018060a01b03600454165af13d15611080573d67ffffffffffffffff811161106c5760405190611013601f8201601f19166020018361131a565b81525f60203d92013e5b1561105d576004546040519182526001600160a01b0316907fc0819c13be868895eb93e40eaceb96de976442fa1d404e5c55f14bb65a8c489a90602090a2005b6327fcd9d160e01b5f5260045ffd5b634e487b7160e01b5f52604160045260245ffd5b61101d565b346103b05760603660031901126103b0576044356024356004356110a7611571565b81811161110057808310801561110f575b611100577ffa1c773cd8c093fd48c07feba9da024a14b020fb4c7abb66e20e4e2f845f8de09260609282600555806006558160075560405192835260208301526040820152a1005b6358f85b4960e11b5f5260045ffd5b508183116110b8565b346103b0575f3660031901126103b0576020600554604051908152f35b346103b05760203660031901126103b0576001600160a01b03611156611254565b165f52600960205260405f206040519081602082549182815201915f5260205f20905f5b818110611191576105738561055f8187038261131a565b82546001600160a01b031684526020909301926001928301920161117a565b346103b0575f3660031901126103b057602060405160c88152f35b346103b05760403660031901126103b0576111e4611254565b6001600160a01b03165f908152600860205260409020805460243591908210156103b05760209161024491611296565b346103b05760203660031901126103b057602061123260043561137b565b604051908152f35b346103b0575f3660031901126103b0576020906003548152f35b600435906001600160a01b03821682036103b057565b6001548110156112825760015f5260205f2001905f90565b634e487b7160e01b5f52603260045260245ffd5b8054821015611282575f5260205f2001905f90565b90602080835192838152019201905f5b8181106112c85750505090565b82516001600160a01b03168452602093840193909201916001016112bb565b90602080835192838152019201905f5b8181106113045750505090565b82518452602093840193909201916001016112f7565b90601f8019910116810190811067ffffffffffffffff82111761106c57604052565b67ffffffffffffffff811161106c5760051b60200190565b8181029291811591840414171561136757565b634e487b7160e01b5f52601160045260245ffd5b61138760075482611354565b9015158061139e575b6113975790565b5060055490565b506005548110611390565b8051156112825760200190565b80518210156112825760209160051b010190565b9190820180921161136757565b9190820391821161136757565b600154600160401b81101561106c5780600161140592016001556001611296565b81546001600160a01b0393841660039290921b91821b9390911b1916919091179055565b8054600160401b81101561106c5761140591600182018155611296565b92969594916114729061146460a0969360c0875260c08701906112ab565b9085820360208701526112e7565b966040840152606083015260808201520152565b51906001600160a01b03821682036103b057565b908160209103126103b0575180151581036103b05790565b916001549182841015611554576114c990846113ca565b8383821161154c575b6114db916113d7565b6114e48161133c565b6114f1604051918261131a565b818152601f196115008361133c565b0136602083013780945f5b8381106115185750505050565b8061152d611528600193856113ca565b61126a565b838060a01b0391549060031b1c1661154582866113b6565b520161150b565b8391506114d2565b5090915060405161156660208261131a565b5f81525f3681379190565b5f546001600160a01b0316330361158457565b63118cdaa760e01b5f523360045260245ffd5b909291938151925f9315610ebb57620151808610801561184c575b610e9f576115bf8161137b565b946127106115d96115d088346113d7565b60035490611354565b04966115e587896113ca565b341115610e90576001546040513360601b6bffffffffffffffffffffffff19166020820190815260348201929092526116269190610c0d8160548101610bff565b966001600160a01b038816938415610e81571561184457975b6116528961164d83346113d7565b6113d7565b9861165d82346113d7565b6002546001600160a01b0316863b156103b0575f916116a58a6116b79360405196879586948594633ac32db560e11b865233600487015260c0602487015260c48601906112ab565b8481036003190160448601528c6112e7565b918a6064850152608484015260a48301520391895af1801561183957611824575b506116e2886113e4565b33875260086020526116f78860408920611429565b865b8651811015611733576001906001600160a01b03611717828a6113b6565b51168952600960205261172d8a60408b20611429565b016116f9565b50906117868496927f8ecb69bad2b4358eb615dbb12c7d1b4ecc91e45f02a7cd14451a05dbf87ec85a94969a868a52600a60205260408a20600160ff198254161790556040519485943399429287611446565b0390a36002546001600160a01b0316806117a1575b50505090565b803b15610ad2578280916024604051809481936367ccd1cb60e01b83528760048401525af18015610a2c5790839161180f575b50506002546001600160a01b0316917ff8ee9039d8e4d43426638703c71517008894fdea742bb2d2dbff5a46fb07abdb9080a35f808061179b565b816118199161131a565b61038c57815f6117d4565b6118319197505f9061131a565b5f955f6116d8565b6040513d5f823e3d90fd5b505f9761163f565b506312cc030086116115b2565b6e5af43d82803e903d91602b57fd5bf390763d602d80600a3d3981f3363d3d373d3d3d363d7300000062ffffff8260881c16175f5260781b17602052603760095ff5906001600160a01b038216156118ad57565b6330be1a3d60e21b5f5260045ffdfea26469706673582212205942cfb8d188544b537d56a336799850e633c469dbba96b0e5f83b82ea4336d064736f6c634300081e003360808060405234602c5760015f556007805460ff60a81b1916600160a81b17905561319a90816100318239f35b5f80fdfe6080806040526004361015610024575b50361561001a575f80fd5b610022612ee9565b005b5f3560e01c90816301ffc9a7146128805750806310bb62771461283c578063115c68c7146127bf578063150b7a02146126505780631b0e1ffa146126075780631c0795c3146125c55780631e77c26914612553578063256fc59a14611c4757806331a38c8914611c2557806335c817cc14611c085780633e810fc8146115a95780634025feb214611b8257806344004cc114611aac5780634782f77914611a135780634eae51f4146119f0578063568ddfc6146119b357806366a6752414611936578063721413091461191957806375865b6a146116455780637a55c97d1461162b5780637b103999146115ff5780638493eb25146115e15780638ae2421f146115a95780638da5cb5b1461158157806397feb9261461140057806399a31333146113de578063a31ca913146113bc578063abca72901461139f578063af434a6d146112e8578063b106d2d2146112cd578063bc197c81146110da578063bc69938914611054578063c3cf31c514610fcf578063c426320314610f00578063c55e4a0e14610dec578063cacfaa2214610d43578063ccf0002e14610cb2578063d29a4bf614610c01578063d362bd2b14610be4578063d5381e8014610b2f578063d677947e14610b0b578063db2e21bc146106c1578063f23a6e6114610589578063f46b8f82146102b8578063f6326fb3146102a55763fd6f66431461022a575f61000f565b346102a1575f3660031901126102a15760025461024681612e94565b905f5b81811061026a576040516020808252819061026690820186612a23565b0390f35b80610276600192612968565b838060a01b0391549060031b1c165f52600360205260405f205461029a8286612d94565b5201610249565b5f80fd5b5f3660031901126102a157610022612ee9565b346102a15760403660031901126102a1576004356001600160401b0381116102a1576102e8903690600401612ac8565b6024356001600160401b0381116102a157610307903690600401612b36565b6001549091906001600160a01b0316330361057b5760ff6007541661056c576103308282613034565b60025461033c81612ab1565b9061034a6040519283612a90565b808252601f1961035982612ab1565b013660208401375f5b8181106105415750505f5b6002548110156103ce5780610383600192612968565b838060a01b0391549060031b1c165f52600460205260405f2060ff1981541690556103ad81612968565b838060a01b0391549060031b1c165f5260036020525f60408120550161036d565b50906002545f600255806104e1575b505f5b815181101561045e576001906104086001600160a01b036104018386612d94565b5116612c63565b6104128186612d94565b51828060a01b036104238386612d94565b51165f52600360205260405f2055818060a01b036104418285612d94565b51165f52600460205260405f208260ff19825416179055016103e0565b7fba9304fdf0adec6441704aeac20785e7db0582c582b508b4293733f5fbf4c7226104a3846104bf876104b187426006556040519586956080875260808701906128ff565b9085820360208701526128ff565b908382036040850152612a23565b4260608301520390a15f5160206131455f395f51905f526020604051428152a1005b60025f527f405787fa12a823e0f2b7631cc41b3ba8828b3321ca811111fa75cd3aa3bb5ace017f405787fa12a823e0f2b7631cc41b3ba8828b3321ca811111fa75cd3aa3bb5ace5b81811061053657506103dd565b5f8155600101610529565b8061054d600192612968565b838060a01b0391549060031b1c166105658286612d94565b5201610362565b630dc1019760e01b5f5260045ffd5b6282b42960e81b5f5260045ffd5b346102a15761059736612bc3565b50509150915060ff6007541661056c57335f52601560205260ff60405f2054161561069c575b335f52601360205260405f20825f5260205260ff60405f20541615610661575b335f52601160205260405f20825f5260205260405f206105fe828254612d31565b9055600a5460ff811615610651575b5060405191825260208201527f42fa234691156c87ff89ed9ae178d78cb7d8e64c828f7fa7e3892aa2a1a3ebef60403392a260405163f23a6e6160e01b8152602090f35b60ff1916600117600a558261060d565b335f52601360205260405f20825f5260205260405f20600160ff19825416179055335f5260126020526106978260405f20612cc9565b6105dd565b335f52601560205260405f20600160ff198254161790556106bc33612ca8565b6105bd565b346102a1575f3660031901126102a1576001546001600160a01b0316330361057b5760ff6007541661056c576106f5612f56565b600160ff1960075416176007554780610ae1575b505f5b600b548110156108365761071f81612994565b90546040516370a0823160e01b81523060048201529160031b1c6001600160a01b0316602082602481845afa9182156107f8575f92610803575b508161076a575b505060010161070c565b60015460405163a9059cbb60e01b81526001600160a01b0390911660048201526024810192909252602090829060449082905f905af19081156107f8575f916107ca575b50156107bb578180610760565b6312171d8360e31b5f5260045ffd5b6107eb915060203d81116107f1575b6107e38183612a90565b810190612d7c565b826107ae565b503d6107d9565b6040513d5f823e3d90fd5b9091506020813d821161082e575b8161081e60209383612a90565b810103126102a157519083610759565b3d9150610811565b5f5b600f548110156109675761084b816129ac565b60018060a01b0391549060031b1c1690815f52600d60205260405f20604051808260208294549384815201905f5260205f20925f5b81811061094e57505061089592500382612a90565b5f5b8151811015610942576108aa8183612d94565b5190845f52600e60205260405f20825f5260205260ff60405f2054166108d5575b6001915001610897565b6001546001600160a01b0316853b156102a157604051632142170760e11b81523060048201526001600160a01b0391909116602482015260448101929092525f8260648183895af19182156107f857600192610932575b506108cb565b5f61093c91612a90565b8561092c565b50506001915001610838565b8454835260019485019486945060209093019201610880565b5f5b601454811015610aa65761097c816129c4565b60018060a01b0391549060031b1c1690815f52601260205260405f20604051808260208294549384815201905f5260205f20925f5b818110610a8d5750506109c692500382612a90565b5f5b8151811015610a81576109db8183612d94565b5190845f52601160205260405f20825f5260205260405f20549182610a06575b5060019150016109c8565b6001546001600160a01b031690863b156102a157604051637921219560e11b81523060048201526001600160a01b039290921660248301526044820152606481019290925260a060848301525f60a483018190528260c48183895af19182156107f857600192156109fb575f610a7b91612a90565b856109fb565b50506001915001610969565b84548352600194850194869450602090930192016109b1565b60018060a01b03600154167f23d6711a1d031134a36921253c75aa59e967d38e369ac625992824315e204f206020604051428152a260015f55005b6001545f918291829182916001600160a01b03165af1610aff612d3e565b50156107bb5780610709565b346102a1575f3660031901126102a1576020610b25612ec6565b6040519015158152f35b346102a1575f3660031901126102a1576001546001600160a01b03163381900361057b5760ff6007541661056c5760ff600a5416610bd557600854908115610bc6575f8080848194826008555af1610b85612d3e565b50156107bb576001546040519182526001600160a01b0316907f78473f3f373f7673597f4f0fa5873cb4d375fea6d4339ad6b56dbd411513cb3f90602090a2005b635373815f60e01b5f5260045ffd5b63671b9d6f60e01b5f5260045ffd5b346102a1575f3660031901126102a1576020600554604051908152f35b346102a15760403660031901126102a157610c1a6128d3565b6001546001600160a01b0316330361057b5760ff6007541661056c576001600160a01b0316803b156102a157604051632142170760e11b815233600482015230602480830191909152356044820152905f908290818381606481015b03925af180156107f857610ca2575b426006555f5160206131455f395f51905f526020604051428152a1005b5f610cac91612a90565b80610c85565b346102a1575f3660031901126102a157604051600f80548083525f91825260208301917f8d1108e10bcb7c27dddfc02ed9d693a074039d026cf4ea4240b40f7d581ac80291905b818110610d245761026685610d1081870382612a90565b6040519182916020835260208301906128ff565b82546001600160a01b0316845260209093019260019283019201610cf9565b346102a15760803660031901126102a157610d5c6128d3565b6044356064356001600160401b0381116102a157610d7e90369060040161293b565b600154919390916001600160a01b0316330361057b5760ff6007541661056c578215610ddd576001600160a01b0316803b156102a157610c76935f809460405196879586948593637921219560e11b8552602435303360048801612e44565b631f2a200560e01b5f5260045ffd5b346102a1575f3660031901126102a157600254610e0881612e94565b905f5b818110610ec9576101808360018060a01b0360015416906005549060065460ff6007541647600b54600f549160145493610e43612ec6565b95610e8f610e4f612e00565b98610e81604051610e6a81610e6381612c21565b0382612a90565b6040519e8f9e8f90815281602082015201906128ff565b8c810360408e015290612a23565b9860608b015260808a0152151560a089015260c088015260e087015261010086015261012085015215156101408401526101608301520390f35b80610ed5600192612968565b838060a01b0391549060031b1c165f52600360205260405f2054610ef98286612d94565b5201610e0b565b346102a157610f0e36612bc3565b9192909460018060a01b0360015416330361057b5760ff6007541661056c57610f35612f56565b6001600160a01b03851615610fc0578315610ddd576001600160a01b031691823b156102a1575f94610f80869260405198899788968795637921219560e11b87523060048801612e44565b03925af180156107f857610fb0575b426006555f5160206131455f395f51905f526020604051428152a160015f55005b5f610fba91612a90565b80610f8f565b63d92e233d60e01b5f5260045ffd5b5f3660031901126102a1576001546001600160a01b0316330361057b5760ff6007541661056c573415610ddd5761100834600854612d31565b6008556040513481527f4b3f93ddc1a0d0b62a4542a17548df59d6784c5758e6a36484de61469bf6536360203392a2426006555f5160206131455f395f51905f526020604051428152a1005b346102a15760203660031901126102a1576001600160a01b036110756128d3565b165f52600d60205260405f206040519081602082549182815201915f5260205f20905f5b8181106110c457610266856110b081870382612a90565b604051918291602083526020830190612a23565b8254845260209093019260019283019201611099565b346102a15760a03660031901126102a1576110f36128d3565b506110fc6128e9565b506044356001600160401b0381116102a15761111c903690600401612b93565b906064356001600160401b0381116102a15761113c903690600401612b93565b6084356001600160401b0381116102a15761115b90369060040161293b565b505060ff6007541661056c578084036102a1575f93335f52601560205260ff60405f205416156112a8575b5f5b8181106111cc5785806111bf575b6111ad575b60405163bc197c8160e01b8152602090f35b600160ff19600a541617600a5561119b565b5060ff600a541615611196565b6111d7818387612e34565b356111e3828587612e34565b35335f52601360205260405f20825f5260205260ff60405f20541615611263575b9060019291335f52601160205260405f20825f5260205260405f2061122a828254612d31565b905560405191825260208201527f42fa234691156c87ff89ed9ae178d78cb7d8e64c828f7fa7e3892aa2a1a3ebef60403392a201611188565b965090600191335f52601360205260405f20815f5260205260405f208360ff19825416179055335f52601260205261129e8160405f20612cc9565b9196909190611204565b335f52601560205260405f20600160ff198254161790556112c833612ca8565b611186565b346102a1575f3660031901126102a157602060405160018152f35b346102a15760203660031901126102a157600154600435906001600160a01b0316330361057b5760ff6007541661056c57600181108015611392575b6113835760607fbf13602096f3021e39ce62b6e915308841dbdc9b8421bdaaba2a4aa701a1dee1916005549080600555426006556040519182526020820152426040820152a15f5160206131455f395f51905f526020604051428152a1005b6302e8f35960e31b5f5260045ffd5b506312cc03008111611324565b346102a1575f3660031901126102a1576020600854604051908152f35b346102a1575f3660031901126102a15760206113d6612e00565b604051908152f35b346102a1575f3660031901126102a157602060ff600a54166040519015158152f35b346102a15760403660031901126102a1576114196128d3565b60015460243591906001600160a01b0316330361057b5760ff6007541661056c57611442612f56565b8115610ddd576001600160a01b03165f818152600c602052604090205490919060ff1615611514575b6040516323b872dd60e01b8152336004820152306024820152604481018290526020816064815f875af19081156107f8575f916114f5575b50156107bb5760207fab79632de7fe1724598ce2214eaa326d90d48064d2d3397406ecc5769316a5f69142600655604051908152a25f5160206131455f395f51905f526020604051428152a160015f55005b61150e915060203d6020116107f1576107e38183612a90565b836114a3565b815f52600c60205260405f20600160ff19825416179055600b54600160401b81101561156d5780600161154c9201600b55600b612a0e565b81546001600160a01b0360039290921b91821b19169084901b17905561146b565b634e487b7160e01b5f52604160045260245ffd5b346102a1575f3660031901126102a1576001546040516001600160a01b039091168152602090f35b346102a15760203660031901126102a1576001600160a01b036115ca6128d3565b165f526003602052602060405f2054604051908152f35b346102a1575f3660031901126102a15760206040516312cc03008152f35b346102a1575f3660031901126102a15760075460405160089190911c6001600160a01b03168152602090f35b346102a1575f3660031901126102a15760206113d6612da8565b60c03660031901126102a1576116596128d3565b6024356001600160401b0381116102a157611678903690600401612ac8565b906044356001600160401b0381116102a157611698903690600401612b36565b91608435916064356001600160a01b03841684036102a15760a4359160075460ff8160a81c1661190b5760ff60a81b1916600160a81b176007556001600160a01b03168015610fc0576001821080156118fe575b611383576116fa8685613034565b6bffffffffffffffffffffffff60a01b60015416176001555f5b835181101561178b576001906117356001600160a01b036104018388612d94565b61173f8188612d94565b51828060a01b036117508388612d94565b51165f52600360205260405f2055818060a01b0361176e8287612d94565b51165f52600460205260405f208260ff1982541617905501611714565b50915091816005554260065560075490610100600160a81b039060081b16906affffffffffffffffffffff60a81b16176007558160095560ff19600a5416600a555f923492806118a9575b5061182c7ffd6dcf677423d8702d1e90fb76edc6af130ccf1a14c3286b82de30f455af50d79160018060a01b0360015416936040519283926080845261181e60808501612c21565b908482036020860152612a23565b9060408301524260608301520390a280611877575b508061184957005b6040519081527f4b3f93ddc1a0d0b62a4542a17548df59d6784c5758e6a36484de61469bf6536360203392a2005b6040519081527f6c703791f399558807424f489ccd811c72b4ff0b74af547264fad7c646776df060203392a281611841565b925092508134106118ef577ffd6dcf677423d8702d1e90fb76edc6af130ccf1a14c3286b82de30f455af50d761182c83946118e48534612cfd565b9460085591506117d6565b6350ff61c160e01b5f5260045ffd5b506312cc030082116116ec565b62dc149f60e41b5f5260045ffd5b346102a1575f3660031901126102a1576020600954604051908152f35b346102a1575f3660031901126102a157604051601480548083525f91825260208301917fce6d7b5282bd9a3661ae061feed1dbda4e52ab073b1f9285be6e155d9c38d4ec91905b8181106119945761026685610d1081870382612a90565b82546001600160a01b031684526020909301926001928301920161197d565b346102a15760203660031901126102a1576001600160a01b036119d46128d3565b165f526004602052602060ff60405f2054166040519015158152f35b346102a1575f3660031901126102a157610266604051610d1081610e6381612c21565b346102a15760403660031901126102a1576004356001600160a01b038116908190036102a15760015460243591906001600160a01b0316330361057b5760ff6007541661056c57611a62612f56565b8015610fc0578115610ddd57478211610bc6575f80809381935af1611a85612d3e565b50156107bb57426006555f5160206131455f395f51905f526020604051428152a160015f55005b346102a157611aba36612a56565b6001546001600160a01b0316330361057b5760ff6007541661056c57611ade612f56565b6001600160a01b03821615610fc0578015610ddd5760405163a9059cbb60e01b81526001600160a01b0390921660048301526024820152906020908290815f816044810103926001600160a01b03165af19081156107f8575f91611b635750156107bb57426006555f5160206131455f395f51905f526020604051428152a160015f55005b611b7c915060203d6020116107f1576107e38183612a90565b81611a85565b346102a157611b9036612a56565b6001549092906001600160a01b0316330361057b5760ff6007541661056c576001600160a01b03821615610fc0576001600160a01b031691823b156102a157604051632142170760e11b81523060048201526001600160a01b0390921660248301526044820152905f90829081838160648101610c76565b346102a1575f3660031901126102a1576020600654604051908152f35b346102a1575f3660031901126102a157602060ff600754166040519015158152f35b346102a1575f3660031901126102a15760ff6007541661056c57611c69612f56565b611c71612ec6565b15612544576007805460ff19166001179081905560405163020c5e6d60e41b81525f91829182916020908290600490829060081c6001600160a01b03165afa5f9181612510575b50612508575b50600a5460ff16801561250157611cd3612da8565b905b806124f6575b6124e757611cec4760085490612cfd565b915f92806123c9575b505f5b600b54811015611f4d57611d0b81612994565b90546040516370a0823160e01b81523060048201529160031b1c6001600160a01b0316602082602481845afa9182156107f8575f92611f1a575b5081611d56575b5050600101611cf8565b60019650908088611e9a575b508015611d4c575f875b611d77575b50611d4c565b600254811015611e9557611d8a81612968565b60018060a01b0391549060031b1c165f52600360205287612710611db260405f205485612d1e565b0480611dc3575b5080910190611d6c565b9050611e0c602082611dd485612968565b905460405163a9059cbb60e01b815260039290921b1c6001600160a01b03166004820152602481019190915291829081906044820190565b03815f895af19081156107f8575f91611e77575b50156107bb5788918291857fe11fb810155d1e288b49c8619d9dbb4549d8f1fd6dda3c5b14aacbfd10b53b736020611e5785612968565b905460405195865260039190911b1c6001600160a01b031693a391611db9565b611e8f915060203d81116107f1576107e38183612a90565b8b611e20565b611d71565b9050611eb4612710611eac8a84612d1e565b048092612cfd565b908015611d625760075460405163a9059cbb60e01b815260089190911c6001600160a01b0316600482015260248101919091526020816044815f875af180156107f85715611d6257611f139060203d81116107f1576107e38183612a90565b5088611d62565b9091506020813d8211611f45575b81611f3560209383612a90565b810103126102a157519088611d45565b3d9150611f28565b50839291925f925b600f548410156120c157611f68846129ac565b60018060a01b0391549060031b1c1694855f52600d60205260405f209360405180958691602082549182815201915f5260205f20905f905b8082106120a95750505090611fb6910386612a90565b5f5b855181101561209857611fcb8187612d94565b51885f52600e60205260405f20815f5260205260ff60405f205416611ff4575b50600101611fb8565b600195509061200282612f74565b91893b156102a157604051632142170760e11b81523060048201526001600160a01b038416602482015260448101829052925f84606481838f5af19384156107f85760208c927f787f0d20046a9d78e1e5000bff3ec2d52ccac95a65c50cfd96534307571412c792600197612088575b50604051948552868060a01b031693a390611feb565b5f61209291612a90565b8e612072565b509350936001919550019293611f55565b90919260016020819286548152019401920190611fa0565b849293505f925b6014548410156122d6576120db846129c4565b60018060a01b0391549060031b1c1694855f52601260205260405f209360405180958691602082549182815201915f5260205f20905f905b8082106122be5750505090612129910386612a90565b5f5b85518110156122ad5761213e8187612d94565b51885f52601160205260405f20815f5260205260405f20549081612167575b505060010161212b565b60019350905f845b61217a575b5061215d565b6002548110156122a85761218d81612968565b60018060a01b0391549060031b1c165f526003602052846127106121b560405f205485612d1e565b04806121c6575b508091019061216f565b90506121d182612968565b905460039190911b1c6001600160a01b0316918c3b156102a157604051637921219560e11b81523060048201526001600160a01b039093166024840152604483018590526064830182905260a060848401525f60a48401819052838e81838160c4810103925af19182156107f85787938493612298575b508d7f1ded93f95818f97b8aa2deb2bba85a8641bac2ef8edc112d6fc8e3d2d86202d8604061227685612968565b60018060a01b0391549060031b1c16938151908a82526020820152a3916121bc565b5f6122a291612a90565b8e612248565b612174565b5093509360019195500192936120c8565b90919260016020819286548152019401920190612113565b84935060ff600a5416806123c0575b61236d575b5080612344575b5015610bc6577f92ac90467de47b9b7199ee653911359a4f91596f711dfaa9c6fcb19f87788b4460406123226129dc565b60018060a01b0391549060031b1c16928151904282526020820152a260015f55005b6007545f9182918291829160081c6001600160a01b03165af150612366612d3e565b50826122f1565b6008548181101561237f575b506122ea565b5f8061239b84809861239384978597612cfd565b600855612d31565b60075490979060081c6001600160a01b03165af1506123b8612d3e565b508380612379565b508015156122e5565b935060018094866124cb575b846123df91612cfd565b806123eb575b50611cf5565b5f825b6123f9575b506123e5565b6002548110156124c65761240c81612968565b60018060a01b0391549060031b1c165f52600360205261271061243360405f205484612d1e565b0480612443575b508201826123ee565b9092505f8080808461245488612968565b905460039190911b1c6001600160a01b03165af1612470612d3e565b50156107bb57869283917f55083a582b32208b745a21c8ce4f8d545be8cce1437f34637f08fc9d943eacb060206124a684612968565b905460405194855260039190911b1c6001600160a01b031692a29061243a565b6123f3565b935050506127106124dc8584612d1e565b0491829084906123d5565b637806a4f560e11b5f5260045ffd5b508060085410611cdb565b5f90611cd5565b925083611cbe565b9091506020813d60201161253c575b8161252c60209383612a90565b810103126102a157519085611cb8565b3d915061251f565b63785bbc6d60e11b5f5260045ffd5b346102a15760203660031901126102a1576001600160a01b036125746128d3565b165f52601260205260405f206040519081602082549182815201915f5260205f20905f5b8181106125af57610266856110b081870382612a90565b8254845260209093019260019283019201612598565b346102a15760203660031901126102a1576004356002548110156102a1576125ee602091612968565b905460405160039290921b1c6001600160a01b03168152f35b346102a1575f3660031901126102a1576001546001600160a01b0316330361057b5760ff6007541661056c57426006555f5160206131455f395f51905f526020604051428152a1005b346102a15760803660031901126102a1576126696128d3565b506126726128e9565b506044356064356001600160401b0381116102a15761269590369060040161293b565b505060ff6007541661056c57335f52601060205260ff60405f20541615612766575b335f52600e60205260405f20815f5260205260ff60405f205416156126e9575b604051630a85bd0160e11b8152602090f35b335f52600e60205260405f20815f5260205260405f20600160ff19825416179055335f52600d60205261271f8160405f20612cc9565b6040519081527fa2d003d5da09c66f819593df4005002649b2d85f2bcb235106733d6655cb25a860203392a2600a5460ff81166126d75760ff1916600117600a55806126d7565b335f52601060205260405f20600160ff19825416179055600f54600160401b81101561156d5780600161279e9201600f55600f612a0e565b81546001600160a01b0360039290921b91821b19163390911b1790556126b7565b346102a1575f3660031901126102a157604051600b80548083525f91825260208301917f0175b7a638427703f0dbe7bb9bbf987a2551717b34e79f33b5b1008d1fa01db991905b81811061281d5761026685610d1081870382612a90565b82546001600160a01b0316845260209093019260019283019201612806565b346102a15760403660031901126102a1576001600160a01b0361285d6128d3565b165f52601160205260405f206024355f52602052602060405f2054604051908152f35b346102a15760203660031901126102a1576004359063ffffffff60e01b82168092036102a157602091630a85bd0160e11b81149081156128c2575b5015158152f35b630271189760e51b149050836128bb565b600435906001600160a01b03821682036102a157565b602435906001600160a01b03821682036102a157565b90602080835192838152019201905f5b81811061291c5750505090565b82516001600160a01b031684526020938401939092019160010161290f565b9181601f840112156102a1578235916001600160401b0383116102a157602083818601950101116102a157565b6002548110156129805760025f5260205f2001905f90565b634e487b7160e01b5f52603260045260245ffd5b600b5481101561298057600b5f5260205f2001905f90565b600f5481101561298057600f5f5260205f2001905f90565b6014548110156129805760145f5260205f2001905f90565b600254156129805760025f9081527f405787fa12a823e0f2b7631cc41b3ba8828b3321ca811111fa75cd3aa3bb5ace91565b8054821015612980575f5260205f2001905f90565b90602080835192838152019201905f5b818110612a405750505090565b8251845260209384019390920191600101612a33565b60609060031901126102a1576004356001600160a01b03811681036102a157906024356001600160a01b03811681036102a1579060443590565b90601f801991011681019081106001600160401b0382111761156d57604052565b6001600160401b03811161156d5760051b60200190565b9080601f830112156102a157813590612ae082612ab1565b92612aee6040519485612a90565b82845260208085019360051b8201019182116102a157602001915b818310612b165750505090565b82356001600160a01b03811681036102a157815260209283019201612b09565b9080601f830112156102a1578135612b4d81612ab1565b92612b5b6040519485612a90565b81845260208085019260051b8201019283116102a157602001905b828210612b835750505090565b8135815260209182019101612b76565b9181601f840112156102a1578235916001600160401b0383116102a1576020808501948460051b0101116102a157565b60a06003198201126102a1576004356001600160a01b03811681036102a157916024356001600160a01b03811681036102a157916044359160643591608435906001600160401b0382116102a157612c1d9160040161293b565b9091565b602060025491828152019060025f5260205f20905f5b818110612c445750505090565b82546001600160a01b0316845260209093019260019283019201612c37565b600254600160401b81101561156d57806001612c8492016002556002612a0e565b81546001600160a01b0393841660039290921b91821b9390911b1916919091179055565b601454600160401b81101561156d57806001612c8492016014556014612a0e565b8054600160401b81101561156d57612ce691600182018155612a0e565b819291549060031b91821b915f19901b1916179055565b91908203918211612d0a57565b634e487b7160e01b5f52601160045260245ffd5b81810292918115918404141715612d0a57565b91908201809211612d0a57565b3d15612d77573d906001600160401b03821161156d5760405191612d6c601f8201601f191660200184612a90565b82523d5f602084013e565b606090565b908160209103126102a1575180151581036102a15790565b80518210156129805760209160051b010190565b60ff600a541615612dfc57612dc2600f5460145490612d31565b8015612df75766038d7ea4c68000810290810466038d7ea4c6800003612d0a576009549081811015612df2575090565b905090565b505f90565b5f90565b60ff60075416612dfc57612e1660065442612cfd565b6005549081811015612e2e57612e2b91612cfd565b90565b50505f90565b91908110156129805760051b0190565b6001600160a01b039182168152911660208201526040810191909152606081019190915260a060808201819052810183905260c09290918190848401375f828201840152601f01601f1916010190565b90612e9e82612ab1565b612eab6040519182612a90565b8281528092612ebc601f1991612ab1565b0190602036910137565b60ff600754161580612ed55790565b50612ee260065442612cfd565b6005541090565b60ff6007541661056c573415610ddd576040513481527f6c703791f399558807424f489ccd811c72b4ff0b74af547264fad7c646776df060203392a26001546001600160a01b03163314612f3957565b426006555f5160206131455f395f51905f526020604051428152a1565b60025f5414612f655760025f55565b633ee5aeb560e01b5f5260045ffd5b600254906001821461302a576127105f916040516020810191825242604082015260408152612fa4606082612a90565b519020065f915b838310612fde575050505f198101908111612d0a57612fc990612968565b905460039190911b1c6001600160a01b031690565b61300c90612feb84612968565b60018060a01b0391549060031b1c165f52600360205260405f205490612d31565b9182821061301d5760010191612fab565b915050612fc99150612968565b5050612fc96129dc565b90918151156130e857600a8251116131355781518351036130e8575f905b82518210156130f7576001600160a01b0361306d8385612d94565b511615610fc05760018201808311612d0a575b83518110156130cd576001600160a01b0361309b8486612d94565b51166001600160a01b036130af8387612d94565b5116146130be57600101613080565b63a7ed968360e01b5f5260045ffd5b50906130d98185612d94565b51156130e85760010190613052565b6331a2956d60e11b5f5260045ffd5b9150505f5f905b83518210156131265761311e6001916131178487612d94565b5190612d31565b9101906130fe565b9192505061270f19016130e857565b630c32dc9760e31b5f5260045ffdfeb0b11ee556478970296b54b539c74aa54c7302b06d020618369f7e5db4b8c9a6a2646970667358221220d1f35274b1d6ae4ae8b8e2137423d72aed407ff5bb051f52a97ca1e731e328b064736f6c634300081e0033","linkReferences":{}},"methodIdentifiers":{"MAX_CREATION_FEE_PERCENT()":"1df5be2a","allVaults(uint256)":"9094a91e","calculateCreationFee(uint256)":"c1757e36","calculateMinNFTFee(uint256)":"185a31cd","createVault(address,uint256)":"5f76dfc0","createVault(address,uint256,uint256)":"486b0acb","createVault(address[],uint256[],uint256,uint256)":"cceeb72d","creationFeePercent()":"00a66259","defaultNFTFee()":"a5ce6e12","feeCollector()":"c415b95c","getVaultDetails(address)":"67a44ca3","getVaults(uint256,uint256)":"b98cca37","getVaultsByHeir(address)":"232f57ac","getVaultsByOwner(address)":"ac818711","implementation()":"5c60da1b","isValidVault(address)":"64219450","isVault(address)":"652b9b41","maxNFTFee()":"543db66e","minNFTFee()":"26b1733e","owner()":"8da5cb5b","renounceOwnership()":"715018a6","setCreationFee(uint256)":"b7d86225","setFeeCollector(address)":"a42dce80","setNFTFeeConfig(uint256,uint256,uint256)":"2abf3b49","setVaultRegistry(address)":"cb91dd7b","totalVaults()":"8d654023","transferOwnership(address)":"f2fde38b","vaultRegistry()":"cdd7b38a","vaultsByHeir(address,uint256)":"e8ced56d","vaultsByOwner(address,uint256)":"1a0121db","withdrawFees()":"476343ee"},"id":29}