{"abi":[{"type":"constructor","inputs":[{"name":"_factory","type":"address","internalType":"address"}],"stateMutability":"nonpayable"},{"type":"receive","stateMutability":"payable"},{"type":"function","name":"BATCH_SIZE","inputs":[],"outputs":[{"name":"","type":"uint256","internalType":"uint256"}],"stateMutability":"view"},{"type":"function","name":"MAX_FEE_PERCENT","inputs":[],"outputs":[{"name":"","type":"uint256","internalType":"uint256"}],"stateMutability":"view"},{"type":"function","name":"checker","inputs":[],"outputs":[{"name":"canExec","type":"bool","internalType":"bool"},{"name":"execPayload","type":"bytes","internalType":"bytes"}],"stateMutability":"view"},{"type":"function","name":"distributionFeePercent","inputs":[],"outputs":[{"name":"","type":"uint256","internalType":"uint256"}],"stateMutability":"view"},{"type":"function","name":"executeBatch","inputs":[{"name":"list","type":"address[]","internalType":"address[]"},{"name":"nextIndex","type":"uint256","internalType":"uint256"}],"outputs":[],"stateMutability":"nonpayable"},{"type":"function","name":"factory","inputs":[],"outputs":[{"name":"","type":"address","internalType":"address"}],"stateMutability":"view"},{"type":"function","name":"feeCollector","inputs":[],"outputs":[{"name":"","type":"address","internalType":"address"}],"stateMutability":"view"},{"type":"function","name":"getDistributableVaults","inputs":[],"outputs":[{"name":"out","type":"address[]","internalType":"address[]"}],"stateMutability":"view"},{"type":"function","name":"getTotalVaults","inputs":[],"outputs":[{"name":"","type":"uint256","internalType":"uint256"}],"stateMutability":"view"},{"type":"function","name":"getVaultInfo","inputs":[{"name":"vault","type":"address","internalType":"address"}],"outputs":[{"name":"vaultOwner","type":"address","internalType":"address"},{"name":"active","type":"bool","internalType":"bool"}],"stateMutability":"view"},{"type":"function","name":"getVaults","inputs":[{"name":"offset","type":"uint256","internalType":"uint256"},{"name":"limit","type":"uint256","internalType":"uint256"}],"outputs":[{"name":"result","type":"address[]","internalType":"address[]"}],"stateMutability":"view"},{"type":"function","name":"lastCheckedIndex","inputs":[],"outputs":[{"name":"","type":"uint256","internalType":"uint256"}],"stateMutability":"view"},{"type":"function","name":"owner","inputs":[],"outputs":[{"name":"","type":"address","internalType":"address"}],"stateMutability":"view"},{"type":"function","name":"registerVault","inputs":[{"name":"vault","type":"address","internalType":"address"}],"outputs":[],"stateMutability":"nonpayable"},{"type":"function","name":"setDistributionFee","inputs":[{"name":"newFeePercent","type":"uint256","internalType":"uint256"}],"outputs":[],"stateMutability":"nonpayable"},{"type":"function","name":"setFeeCollector","inputs":[{"name":"newCollector","type":"address","internalType":"address"}],"outputs":[],"stateMutability":"nonpayable"},{"type":"function","name":"transferOwnership","inputs":[{"name":"newOwner","type":"address","internalType":"address"}],"outputs":[],"stateMutability":"nonpayable"},{"type":"function","name":"unregisterVault","inputs":[{"name":"vault","type":"address","internalType":"address"}],"outputs":[],"stateMutability":"nonpayable"},{"type":"function","name":"vaultIndex","inputs":[{"name":"","type":"address","internalType":"address"}],"outputs":[{"name":"","type":"uint256","internalType":"uint256"}],"stateMutability":"view"},{"type":"function","name":"vaultInfo","inputs":[{"name":"","type":"address","internalType":"address"}],"outputs":[{"name":"owner","type":"address","internalType":"address"},{"name":"active","type":"bool","internalType":"bool"}],"stateMutability":"view"},{"type":"function","name":"vaults","inputs":[{"name":"","type":"uint256","internalType":"uint256"}],"outputs":[{"name":"","type":"address","internalType":"address"}],"stateMutability":"view"},{"type":"function","name":"withdrawFees","inputs":[],"outputs":[],"stateMutability":"nonpayable"},{"type":"event","name":"BatchProcessed","inputs":[{"name":"startIndex","type":"uint256","indexed":false,"internalType":"uint256"},{"name":"endIndex","type":"uint256","indexed":false,"internalType":"uint256"},{"name":"distributed","type":"uint256","indexed":false,"internalType":"uint256"}],"anonymous":false},{"type":"event","name":"DistributionFeeUpdated","inputs":[{"name":"oldFee","type":"uint256","indexed":false,"internalType":"uint256"},{"name":"newFee","type":"uint256","indexed":false,"internalType":"uint256"}],"anonymous":false},{"type":"event","name":"FeeCollectorUpdated","inputs":[{"name":"oldCollector","type":"address","indexed":true,"internalType":"address"},{"name":"newCollector","type":"address","indexed":true,"internalType":"address"}],"anonymous":false},{"type":"event","name":"FeesWithdrawn","inputs":[{"name":"to","type":"address","indexed":true,"internalType":"address"},{"name":"amount","type":"uint256","indexed":false,"internalType":"uint256"}],"anonymous":false},{"type":"event","name":"VaultDistributed","inputs":[{"name":"vault","type":"address","indexed":true,"internalType":"address"},{"name":"feeCollected","type":"uint256","indexed":false,"internalType":"uint256"}],"anonymous":false},{"type":"event","name":"VaultRegistered","inputs":[{"name":"vault","type":"address","indexed":true,"internalType":"address"},{"name":"owner","type":"address","indexed":true,"internalType":"address"}],"anonymous":false},{"type":"event","name":"VaultUnregistered","inputs":[{"name":"vault","type":"address","indexed":true,"internalType":"address"}],"anonymous":false},{"type":"error","name":"AlreadyRegistered","inputs":[]},{"type":"error","name":"InvalidFeePercent","inputs":[]},{"type":"error","name":"NotRegistered","inputs":[]},{"type":"error","name":"Unauthorized","inputs":[]},{"type":"error","name":"VaultReadFailed","inputs":[]},{"type":"error","name":"WithdrawalFailed","inputs":[]},{"type":"error","name":"ZeroAddress","inputs":[]}],"bytecode":{"object":"0x60a0346100b457601f6113ff38819003918201601f19168301916001600160401b038311848410176100b8578084926020946040528339810103126100b457516001600160a01b0381168082036100b4576014600555156100a55760805260038054336001600160a01b0319918216811790925560068054909116909117905560405161133290816100cd82396080518181816104d9015281816108070152610d700152f35b63d92e233d60e01b5f5260045ffd5b5f80fd5b634e487b7160e01b5f52604160045260245ffdfe608080604052600436101561001c575b50361561001a575f80fd5b005b5f3560e01c90816320c5e6d014610db0575080632633b70f14610cf2578063476343ee14610c3157806349faa4d414610c165780635486f10014610bfa57806358185b78146109d65780636156c7331461095e57806367ccd1cb1461077b57806367d817401461075f5780638c64ea4a1461071e5780638da5cb5b146106f657806390229af7146106625780639164359a14610608578063a42dce8014610587578063acd883491461056a578063b98cca3714610530578063c415b95c14610508578063c45a0155146104c4578063cf5303cf14610471578063ef490048146101c6578063f2fde38b1461015a5763fcfa4c071461011a575f61000f565b34610156576020366003190112610156576004356001600160a01b03811690819003610156575f526002602052602060405f2054604051908152f35b5f80fd5b34610156576020366003190112610156576004356001600160a01b03811690819003610156576003546001600160a01b03811633036101b85781156101a9576001600160a01b03191617600355005b63d92e233d60e01b5f5260045ffd5b6282b42960e81b5f5260045ffd5b346101565760403660031901126101565760043567ffffffffffffffff8111610156573660238201121561015657806004013567ffffffffffffffff8111610156573660248260051b84010111610156575f91602435835b8381101561042157600581901b8301602401356001600160a01b03811680820361015657604051636b3bca3f60e11b8152602081600481855afa908115610350575f91610403575b50806103a9575b61027c575b505060010161021e565b8131813b15610156576040516312b7e2cd60e11b81525f8160048183875af19081610399575b506102ae575b50610272565b5f9793929790801580158061038e575b61035b575b50506040516313ab947d60e21b8152935f85600481865afa928315610350577f45e349959ee5cbd0022081374625025137533e9a5e7d6404f1305bdd2a22f09360206103229460019861032897610330575b50604051908152a2610e6a565b96611214565b9086806102a8565b61034b903d805f833e6103438183610e30565b810190610eea565b610315565b6040513d5f823e3d90fd5b90915060055480830292830414171561037a57612710900488806102c3565b634e487b7160e01b5f52601160045260245ffd5b5060055415156102be565b5f6103a391610e30565b896102a2565b506040516331a38c8960e01b8152602081600481855afa908115610350575f916103d5575b501561026d565b6103f6915060203d81116103fc575b6103ee8183610e30565b810190610e52565b886103ce565b503d6103e4565b61041b915060203d81116103fc576103ee8183610e30565b88610266565b7fd03f99f321df6e5a7f705a548f7e6b4880d02286dda4ffbbf00ff5353381fa89606083875f548210155f1461046b575f915b8260045560405192835260208301526040820152a1005b81610454565b34610156575f36600319011261015657606061048b61102e565b91906020604051938492151583526040828401528051918291826040860152018484015e5f828201840152601f01601f19168101030190f35b34610156575f366003190112610156576040517f00000000000000000000000000000000000000000000000000000000000000006001600160a01b03168152602090f35b34610156575f366003190112610156576006546040516001600160a01b039091168152602090f35b3461015657604036600319011261015657610566610552602435600435610f79565b604051918291602083526020830190610dca565b0390f35b34610156575f366003190112610156576020600454604051908152f35b34610156576020366003190112610156576004356001600160a01b03811690819003610156576003546001600160a01b031633036101b85780156101a957600680546001600160a01b0319811683179091556001600160a01b03167f5d16ad41baeb009cd23eb8f6c7cde5c2e0cd5acf4a33926ab488875c37c37f385f80a3005b34610156576020366003190112610156576004356001600160a01b03811690819003610156575f908152600160209081526040918290205482516001600160a01b038216815260a09190911c60ff16151591810191909152f35b34610156576020366003190112610156576004356001600160a01b03811690819003610156575f52600160205260405f20604051604081019181831067ffffffffffffffff8411176106e2576040928352546001600160a01b03811680835260a09190911c60ff1615156020928301819052835191825291810191909152f35b634e487b7160e01b5f52604160045260245ffd5b34610156575f366003190112610156576003546040516001600160a01b039091168152602090f35b34610156576020366003190112610156576004355f5481101561015657610746602091610e06565b905460405160039290921b1c6001600160a01b03168152f35b34610156575f3660031901126101565760206040516101f48152f35b34610156576020366003190112610156576004356001600160a01b0381168082036101565780156101a957805f52600160205260ff60405f205460a01c1661094f57604051638da5cb5b60e01b815291602083600481855afa928315610350575f93610913575b506040516313ab947d60e21b81525f81600481865afa8015610350576108fb575b50337f00000000000000000000000000000000000000000000000000000000000000006001600160a01b03161415806108e8575b6101b8575f5490825f5260026020528160405f2055680100000000000000008210156106e25761086f82600161089394015f55610e06565b81546001600160a01b0393841660039290921b91821b9390911b1916919091179055565b5f81815260016020526040812080546001600160a81b0319166001600160a01b03909416938417600160a01b1790557ff8ee9039d8e4d43426638703c71517008894fdea742bb2d2dbff5a46fb07abdb9080a3005b50336001600160a01b0384161415610837565b61090e903d805f833e6103438183610e30565b610803565b9092506020813d602011610947575b8161092f60209383610e30565b810103126101565761094090610ed6565b91836107e2565b3d9150610922565b630ea075bf60e21b5f5260045ffd5b3461015657602036600319011261015657600354600435906001600160a01b031633036101b8576101f481116109c75760407ff2db91f7e640570444b784f3c5c0e3e4dc118f6e80ce4ad729adf03f666497ed91600554908060055582519182526020820152a1005b638a81d3b360e01b5f5260045ffd5b34610156575f366003190112610156575f805490805b828110610b1d57506109fd90610e90565b5f915f5b818110610a1e576040516020808252819061056690820186610dca565b610a2781610e06565b9054604051636b3bca3f60e11b81529160031b1c6001600160a01b0316602082600481845afa5f9281610afd575b50610a65575b5050600101610a01565b81610aae575b50610a78575b8480610a5b565b92610aa6600191610a8886610e06565b848060a01b0391549060031b1c16610aa08287610ec2565b52610e6a565b939050610a71565b6040516331a38c8960e01b81529150602090829060049082905afa908115610350575f91610adf575b501585610a6b565b610af7915060203d81116103fc576103ee8183610e30565b85610ad7565b610b1691935060203d81116103fc576103ee8183610e30565b9187610a55565b610b2681610e06565b9054604051636b3bca3f60e11b81529160031b1c6001600160a01b0316602082600481845afa5f9281610bda575b50610b64575b50506001016109ec565b81610b8b575b50610b77575b8380610b5a565b90610b83600191610e6a565b919050610b70565b6040516331a38c8960e01b81529150602090829060049082905afa908115610350575f91610bbc575b501584610b6a565b610bd4915060203d81116103fc576103ee8183610e30565b84610bb4565b610bf391935060203d81116103fc576103ee8183610e30565b9186610b54565b34610156575f3660031901126101565760205f54604051908152f35b34610156575f36600319011261015657602060405160148152f35b34610156575f366003190112610156576003546001600160a01b031633036101b857475f8080808460018060a01b03600654165af13d15610ced573d67ffffffffffffffff81116106e25760405190610c94601f8201601f191660200183610e30565b81525f60203d92013e5b15610cde576006546040519182526001600160a01b0316907fc0819c13be868895eb93e40eaceb96de976442fa1d404e5c55f14bb65a8c489a90602090a2005b6327fcd9d160e01b5f5260045ffd5b610c9e565b34610156576020366003190112610156576004356001600160a01b03811680820361015657805f52600160205260ff60405f205460a01c1615610da157805f52600160205260018060a01b0360405f2054163314159081610d6d575b81610d62575b506101b85761001a90611214565b905033141582610d54565b337f00000000000000000000000000000000000000000000000000000000000000006001600160a01b031614159150610d4e565b63aba4733960e01b5f5260045ffd5b34610156575f366003190112610156576020906005548152f35b90602080835192838152019201905f5b818110610de75750505090565b82516001600160a01b0316845260209384019390920191600101610dda565b5f54811015610e1c575f805260205f2001905f90565b634e487b7160e01b5f52603260045260245ffd5b90601f8019910116810190811067ffffffffffffffff8211176106e257604052565b90816020910312610156575180151581036101565790565b5f19811461037a5760010190565b67ffffffffffffffff81116106e25760051b60200190565b90610e9a82610e78565b610ea76040519182610e30565b8281528092610eb8601f1991610e78565b0190602036910137565b8051821015610e1c5760209160051b010190565b51906001600160a01b038216820361015657565b6020818303126101565780519067ffffffffffffffff821161015657019080601f83011215610156578151610f1e81610e78565b92610f2c6040519485610e30565b81845260208085019260051b82010192831161015657602001905b828210610f545750505090565b60208091610f6184610ed6565b815201910190610f47565b9190820391821161037a57565b91905f549081841015610ff65783019081841161037a57808211610fee575b50610fab610fa68483610f6c565b610e90565b92805b828110610fba57505050565b80610fc6600192610e06565b838060a01b0391549060031b1c16610fe7610fe18584610f6c565b88610ec2565b5201610fae565b90505f610f98565b50509050604051611008602082610e30565b5f81525f36813790565b929190611029602091604086526040860190610dca565b930152565b5f549081156111fd5760045491601483019081841161037a578082116111f5575b50604051926102a06110618186610e30565b60148552601f19013660208601375f905b828110611113575061108381610e90565b935f5b8281106110eb575050156110bd576110ba6001936110ac60405193849260208401611012565b03601f198101835282610e30565b90565b91505f916110ba6040516110d2602082610e30565b5f81525f3681376110ac60405193849260208401611012565b6001906001600160a01b036111008285610ec2565b511661110c8289610ec2565b5201611086565b61111c81610e06565b9054604051636b3bca3f60e11b815260039290921b1c6001600160a01b031690602081600481855afa5f91816111d5575b5061115e5750506001905b01611072565b8061118b575b611172575b50600190611158565b8261118491610aa06001949589610ec2565b9190611169565b506040516331a38c8960e01b8152602081600481855afa908115610350575f916111b7575b5015611164565b6111cf915060203d81116103fc576103ee8183610e30565b5f6111b0565b6111ee91925060203d81116103fc576103ee8183610e30565b905f61114d565b90505f61104f565b6040515f925061120e602082610e30565b5f815290565b6001600160a01b03165f8181526002602052604081205490545f19810190811161037a578082036112c1575b50505f5480156112ad575f190161125681610e06565b81549060018060a01b039060031b1b191690555f55805f5260016020525f6040812055805f5260026020525f60408120557f6fd85269676191488efa05d4b8cef674e502d3db3864638c729a0394048423cf5f80a2565b634e487b7160e01b5f52603160045260245ffd5b6112ca90610e06565b905460039190911b1c6001600160a01b03166112e98161086f84610e06565b5f52600260205260405f20555f8061124056fea264697066735822122084f8ddf159a38cf48684324bf872f334628e66029f928da5ee892d42e4fa929864736f6c634300081e0033","linkReferences":{}},"methodIdentifiers":{"BATCH_SIZE()":"49faa4d4","MAX_FEE_PERCENT()":"67d81740","checker()":"cf5303cf","distributionFeePercent()":"20c5e6d0","executeBatch(address[],uint256)":"ef490048","factory()":"c45a0155","feeCollector()":"c415b95c","getDistributableVaults()":"58185b78","getTotalVaults()":"5486f100","getVaultInfo(address)":"90229af7","getVaults(uint256,uint256)":"b98cca37","lastCheckedIndex()":"acd88349","owner()":"8da5cb5b","registerVault(address)":"67ccd1cb","setDistributionFee(uint256)":"6156c733","setFeeCollector(address)":"a42dce80","transferOwnership(address)":"f2fde38b","unregisterVault(address)":"2633b70f","vaultIndex(address)":"fcfa4c07","vaultInfo(address)":"9164359a","vaults(uint256)":"8c64ea4a","withdrawFees()":"476343ee"},"id":44}